{
  "contractName": "LikedVideos",
  "abi": [
    {
      "constant": false,
      "inputs": [
        {
          "name": "_email",
          "type": "string"
        },
        {
          "name": "_id",
          "type": "uint256"
        }
      ],
      "name": "addVideo",
      "outputs": [],
      "payable": false,
      "stateMutability": "nonpayable",
      "type": "function"
    },
    {
      "constant": true,
      "inputs": [
        {
          "name": "_email",
          "type": "string"
        },
        {
          "name": "_id",
          "type": "uint256"
        }
      ],
      "name": "isLiked",
      "outputs": [
        {
          "name": "",
          "type": "bool"
        }
      ],
      "payable": false,
      "stateMutability": "view",
      "type": "function"
    },
    {
      "constant": false,
      "inputs": [
        {
          "name": "_email",
          "type": "string"
        },
        {
          "name": "_id",
          "type": "uint256"
        }
      ],
      "name": "removeVideo",
      "outputs": [],
      "payable": false,
      "stateMutability": "nonpayable",
      "type": "function"
    }
  ],
  "bytecode": "0x608060405234801561001057600080fd5b5061069a806100206000396000f3fe608060405260043610610057576000357c0100000000000000000000000000000000000000000000000000000000900463ffffffff16806342c4fe4b1461005c5780638ab02f1e14610146578063b50e503214610218575b600080fd5b34801561006857600080fd5b5061012c6004803603604081101561007f57600080fd5b810190808035906020019064010000000081111561009c57600080fd5b8201836020820111156100ae57600080fd5b803590602001918460018302840111640100000000831117156100d057600080fd5b91908080601f016020809104026020016040519081016040528093929190818152602001838380828437600081840152601f19601f820116905080830192505050505050509192919290803590602001909291905050506102ea565b604051808215151515815260200191505060405180910390f35b34801561015257600080fd5b506102166004803603604081101561016957600080fd5b810190808035906020019064010000000081111561018657600080fd5b82018360208201111561019857600080fd5b803590602001918460018302840111640100000000831117156101ba57600080fd5b91908080601f016020809104026020016040519081016040528093929190818152602001838380828437600081840152601f19601f82011690508083019250505050505050919291929080359060200190929190505050610415565b005b34801561022457600080fd5b506102e86004803603604081101561023b57600080fd5b810190808035906020019064010000000081111561025857600080fd5b82018360208201111561026a57600080fd5b8035906020019184600183028401116401000000008311171561028c57600080fd5b91908080601f016020809104026020016040519081016040528093929190818152602001838380828437600081840152601f19601f820116905080830192505050505050509192919290803590602001909291905050506105c4565b005b600080600090505b6000846040518082805190602001908083835b60208310151561032a5780518252602082019150602081019050602083039250610305565b6001836020036101000a03801982511681845116808217855250505050505090500191505090815260200160405180910390208054905081101561040957826000856040518082805190602001908083835b6020831015156103a1578051825260208201915060208101905060208303925061037c565b6001836020036101000a0380198251168184511680821785525050505050509050019150509081526020016040518091039020828154811015156103e157fe5b906000526020600020015414156103fc57600191505061040f565b80806001019150506102f2565b60009150505b92915050565b61041f82826102ea565b156105c05760008090505b6000836040518082805190602001908083835b602083101515610462578051825260208201915060208101905060208303925061043d565b6001836020036101000a0380198251168184511680821785525050505050509050019150509081526020016040518091039020805490508110156105be57816000846040518082805190602001908083835b6020831015156104d957805182526020820191506020810190506020830392506104b4565b6001836020036101000a03801982511681845116808217855250505050505090500191505090815260200160405180910390208281548110151561051957fe5b906000526020600020015414156105b1576000836040518082805190602001908083835b602083101515610562578051825260208201915060208101905060208303925061053d565b6001836020036101000a0380198251168184511680821785525050505050509050019150509081526020016040518091039020818154811015156105a257fe5b90600052602060002001600090555b808060010191505061042a565b505b5050565b6105ce82826102ea565b151561066a576000826040518082805190602001908083835b60208310151561060c57805182526020820191506020810190506020830392506105e7565b6001836020036101000a03801982511681845116808217855250505050505090500191505090815260200160405180910390208190806001815401808255809150509060018203906000526020600020016000909192909190915055505b505056fea165627a7a72305820b34abde03a7f333e4ed9465dfc77991b7920bfa853643a2137f1255ac66d809a0029",
  "source": "contract LikedVideos {\r\n\r\n    mapping(string=>uint[]) liked;\r\n\r\n    function addVideo(string memory _email, uint _id)\r\n    public {\r\n        if (!isLiked(_email, _id))\r\n            liked[_email].push(_id);\r\n    }\r\n\r\n    function isLiked(string memory _email, uint _id)\r\n    public\r\n    view\r\n    returns(bool) {\r\n        uint i;\r\n        for (i = 0;i < liked[_email].length;i++) {\r\n            if (liked[_email][i] == _id) {\r\n                return true;\r\n            }\r\n        }\r\n        return false;\r\n    }\r\n\r\n    function removeVideo(string memory _email, uint _id)\r\n    public\r\n    {\r\n        if (isLiked(_email, _id)) {\r\n             uint i;\r\n        for (i = 0;i < liked[_email].length;i++) {\r\n            if (liked[_email][i] == _id) {\r\n                delete liked[_email][i];\r\n            }\r\n        }\r\n        }\r\n    }\r\n\r\n}",
  "sourcePath": "D:/Workspace/INKPlayer/Server/contracts/LikedVideos.sol",
  "compiler": {
    "name": "solc",
    "version": "0.5.0+commit.1d4f565a.Emscripten.clang"
  },
  "schemaVersion": "3.0.6",
  "updatedAt": "2019-05-29T09:28:20.708Z",
  "devdoc": {
    "methods": {}
  },
  "userdoc": {
    "methods": {}
  }
}