{
  "contractName": "Playlist",
  "abi": [
    {
      "constant": false,
      "inputs": [
        {
          "name": "_name",
          "type": "string"
        },
        {
          "name": "_ownerEmail",
          "type": "string"
        }
      ],
      "name": "createPlaylist",
      "outputs": [
        {
          "name": "_id",
          "type": "uint256"
        }
      ],
      "payable": false,
      "stateMutability": "nonpayable",
      "type": "function"
    },
    {
      "constant": false,
      "inputs": [
        {
          "name": "listId",
          "type": "uint256"
        },
        {
          "name": "videoId",
          "type": "uint256"
        }
      ],
      "name": "addVideoToPlaylist",
      "outputs": [],
      "payable": false,
      "stateMutability": "nonpayable",
      "type": "function"
    },
    {
      "constant": true,
      "inputs": [
        {
          "name": "listId",
          "type": "uint256"
        }
      ],
      "name": "getPlaylist",
      "outputs": [
        {
          "components": [
            {
              "name": "name",
              "type": "string"
            },
            {
              "name": "ids",
              "type": "uint256[]"
            },
            {
              "name": "ownerEmail",
              "type": "string"
            }
          ],
          "name": "playlist",
          "type": "tuple"
        }
      ],
      "payable": false,
      "stateMutability": "view",
      "type": "function"
    },
    {
      "constant": true,
      "inputs": [],
      "name": "getPlaylistListCount",
      "outputs": [
        {
          "name": "",
          "type": "uint256"
        }
      ],
      "payable": false,
      "stateMutability": "view",
      "type": "function"
    },
    {
      "constant": true,
      "inputs": [
        {
          "name": "listId",
          "type": "uint256"
        },
        {
          "name": "videoId",
          "type": "uint256"
        }
      ],
      "name": "alreadyAdded",
      "outputs": [
        {
          "name": "",
          "type": "bool"
        }
      ],
      "payable": false,
      "stateMutability": "view",
      "type": "function"
    },
    {
      "constant": false,
      "inputs": [
        {
          "name": "listId",
          "type": "uint256"
        },
        {
          "name": "videoId",
          "type": "uint256"
        }
      ],
      "name": "removeVideoFromPlaylist",
      "outputs": [],
      "payable": false,
      "stateMutability": "nonpayable",
      "type": "function"
    },
    {
      "constant": false,
      "inputs": [
        {
          "name": "listId",
          "type": "uint256"
        }
      ],
      "name": "deletePlaylist",
      "outputs": [
        {
          "name": "id",
          "type": "uint256"
        }
      ],
      "payable": false,
      "stateMutability": "nonpayable",
      "type": "function"
    }
  ],
  "bytecode": "0x60806040526000805534801561001457600080fd5b50610b1f806100246000396000f3fe608060405260043610610083576000357c0100000000000000000000000000000000000000000000000000000000900463ffffffff1680632924dee2146100885780632b9169dd146100c55780632cf15c30146101025780633a3ccc061461012d5780639cc7a9df1461016a578063b1b16da814610193578063fa5c9107146101bc575b600080fd5b34801561009457600080fd5b506100af60048036036100aa9190810190610848565b6101f9565b6040516100bc9190610991565b60405180910390f35b3480156100d157600080fd5b506100ec60048036036100e7919081019061081f565b61027a565b6040516100f991906109ac565b60405180910390f35b34801561010e57600080fd5b50610117610444565b60405161012491906109ce565b60405180910390f35b34801561013957600080fd5b50610154600480360361014f91908101906107b3565b61044d565b60405161016191906109ce565b60405180910390f35b34801561017657600080fd5b50610191600480360361018c9190810190610848565b6104c3565b005b34801561019f57600080fd5b506101ba60048036036101b59190810190610848565b610574565b005b3480156101c857600080fd5b506101e360048036036101de919081019061081f565b6105c9565b6040516101f091906109ce565b60405180910390f35b600080600090505b600160008581526020019081526020016000206001018054905081101561026e5782600160008681526020019081526020016000206001018281548110151561024657fe5b90600052602060002001541415610261576001915050610274565b8080600101915050610201565b60009150505b92915050565b610282610619565b6001600083815260200190815260200160002060606040519081016040529081600082018054600181600116156101000203166002900480601f01602080910402602001604051908101604052809291908181526020018280546001816001161561010002031660029004801561033a5780601f1061030f5761010080835404028352916020019161033a565b820191906000526020600020905b81548152906001019060200180831161031d57829003601f168201915b505050505081526020016001820180548060200260200160405190810160405280929190818152602001828054801561039257602002820191906000526020600020905b81548152602001906001019080831161037e575b50505050508152602001600282018054600181600116156101000203166002900480601f0160208091040260200160405190810160405280929190818152602001828054600181600116156101000203166002900480156104345780601f1061040957610100808354040283529160200191610434565b820191906000526020600020905b81548152906001019060200180831161041757829003601f168201915b5050505050815250509050919050565b60008054905090565b6000826001600080548152602001908152602001600020600001908051906020019061047a92919061063b565b5081600160008054815260200190815260200160002060020190805190602001906104a692919061063b565b506000808154809291906001019190505550600054905092915050565b60006104cf83836101f9565b1561056f57600090505b600160008481526020019081526020016000206001018054905081101561056e5781600160008581526020019081526020016000206001018281548110151561051e57fe5b9060005260206000200154141561056157600160008481526020019081526020016000206001018181548110151561055257fe5b90600052602060002001600090555b80806001019150506104d9565b5b505050565b61057e82826101f9565b15156105c557600160008381526020019081526020016000206001018190806001815401808255809150509060018203906000526020600020016000909192909190915055505b5050565b600081905060016000838152602001908152602001600020600080820160006105f291906106bb565b6001820160006106029190610703565b60028201600061061291906106bb565b5050919050565b6060604051908101604052806060815260200160608152602001606081525090565b828054600181600116156101000203166002900490600052602060002090601f016020900481019282601f1061067c57805160ff19168380011785556106aa565b828001600101855582156106aa579182015b828111156106a957825182559160200191906001019061068e565b5b5090506106b79190610724565b5090565b50805460018160011615610100020316600290046000825580601f106106e15750610700565b601f0160209004906000526020600020908101906106ff9190610724565b5b50565b50805460008255906000526020600020908101906107219190610724565b50565b61074691905b8082111561074257600081600090555060010161072a565b5090565b90565b600082601f830112151561075c57600080fd5b813561076f61076a82610a16565b6109e9565b9150808252602083016020830185838301111561078b57600080fd5b610796838284610a92565b50505092915050565b60006107ab8235610a88565b905092915050565b600080604083850312156107c657600080fd5b600083013567ffffffffffffffff8111156107e057600080fd5b6107ec85828601610749565b925050602083013567ffffffffffffffff81111561080957600080fd5b61081585828601610749565b9150509250929050565b60006020828403121561083157600080fd5b600061083f8482850161079f565b91505092915050565b6000806040838503121561085b57600080fd5b60006108698582860161079f565b925050602061087a8582860161079f565b9150509250929050565b600061088f82610a4f565b8084526020840193506108a183610a42565b60005b828110156108d3576108b7868351610982565b6108c082610a65565b91506020860195506001810190506108a4565b50849250505092915050565b6108e881610a72565b82525050565b60006108f982610a5a565b80845261090d816020860160208601610aa1565b61091681610ad4565b602085010191505092915050565b6000606083016000830151848203600086015261094182826108ee565b9150506020830151848203602086015261095b8282610884565b9150506040830151848203604086015261097582826108ee565b9150508091505092915050565b61098b81610a7e565b82525050565b60006020820190506109a660008301846108df565b92915050565b600060208201905081810360008301526109c68184610924565b905092915050565b60006020820190506109e36000830184610982565b92915050565b6000604051905081810181811067ffffffffffffffff82111715610a0c57600080fd5b8060405250919050565b600067ffffffffffffffff821115610a2d57600080fd5b601f19601f8301169050602081019050919050565b6000602082019050919050565b600081519050919050565b600081519050919050565b6000602082019050919050565b60008115159050919050565b6000819050919050565b6000819050919050565b82818337600083830152505050565b60005b83811015610abf578082015181840152602081019050610aa4565b83811115610ace576000848401525b50505050565b6000601f19601f830116905091905056fea265627a7a7230582082e4cd88fd805b771e5a222f4e74e7476bf6c12c957c25bb82d1d695a699f38e6c6578706572696d656e74616cf50037",
  "source": "\r\npragma experimental ABIEncoderV2;\r\ncontract Playlist {\r\n    struct List {\r\n        string name;\r\n        uint[] ids;\r\n        string ownerEmail;\r\n    }\r\n        \r\n    uint listCount = 0;\r\n    mapping(uint=>List) lists;\r\n    \r\n    function createPlaylist\r\n    (string memory _name, string memory _ownerEmail)\r\n    public\r\n    returns (uint _id)\r\n    {\r\n        lists[listCount].name = _name;\r\n        lists[listCount].ownerEmail = _ownerEmail;\r\n        listCount++;\r\n        _id = listCount;\r\n    }\r\n    \r\n    function addVideoToPlaylist\r\n    (uint listId, uint videoId)\r\n    public \r\n    {\r\n        if (!alreadyAdded(listId, videoId)) {\r\n            lists[listId].ids.push(videoId);\r\n        }\r\n    }\r\n    \r\n    function getPlaylist\r\n    (uint listId)\r\n    public \r\n    view \r\n    returns(List memory playlist)\r\n    {\r\n        playlist = lists[listId];\r\n    }\r\n    \r\n    function getPlaylistListCount \r\n    ()\r\n    public\r\n    view\r\n    returns (uint) {\r\n        return listCount;\r\n    }\r\n    \r\n    function alreadyAdded \r\n    (uint listId, uint videoId) \r\n    public\r\n    view\r\n    returns(bool)\r\n    {\r\n        uint i;\r\n        for (i = 0;i < lists[listId].ids.length;i++) {\r\n            if (lists[listId].ids[i] == videoId) {\r\n                return true;\r\n            }\r\n        }\r\n        return false;\r\n    }\r\n    \r\n    function removeVideoFromPlaylist\r\n    (uint listId, uint videoId) \r\n    public\r\n    {   \r\n        uint i;\r\n        if (alreadyAdded(listId, videoId)) {\r\n            for (i = 0;i < lists[listId].ids.length;i++) {\r\n                if (lists[listId].ids[i] == videoId) {\r\n                  delete lists[listId].ids[i];\r\n                }\r\n            } \r\n        }\r\n    }\r\n    \r\n    function deletePlaylist\r\n    (uint listId)\r\n    public\r\n    returns (uint id)\r\n    {\r\n        id = listId;\r\n        delete lists[listId];\r\n    }\r\n    \r\n}",
  "sourcePath": "D:/Workspace/INKPlayer/Server/contracts/Playlist.sol",
  "compiler": {
    "name": "solc",
    "version": "0.5.0+commit.1d4f565a.Emscripten.clang"
  },
  "schemaVersion": "3.0.6",
  "updatedAt": "2019-05-31T12:04:38.216Z",
  "devdoc": {
    "methods": {}
  },
  "userdoc": {
    "methods": {}
  }
}