{
  "contractName": "UserStore",
  "abi": [
    {
      "anonymous": false,
      "inputs": [
        {
          "indexed": false,
          "name": "email",
          "type": "string"
        },
        {
          "indexed": false,
          "name": "username",
          "type": "string"
        }
      ],
      "name": "createdUser",
      "type": "event",
      "signature": "0x92d0c7a2cabf961474a620852c07e8c3140c79eb78de238b5ed16bc2a6a08738"
    },
    {
      "constant": true,
      "inputs": [
        {
          "name": "_uploaderEmail",
          "type": "string"
        }
      ],
      "name": "getSubscriberCount",
      "outputs": [
        {
          "name": "count",
          "type": "uint256"
        }
      ],
      "payable": false,
      "stateMutability": "view",
      "type": "function",
      "signature": "0x0499d435"
    },
    {
      "constant": true,
      "inputs": [],
      "name": "getEmailCount",
      "outputs": [
        {
          "name": "",
          "type": "uint256"
        }
      ],
      "payable": false,
      "stateMutability": "view",
      "type": "function",
      "signature": "0xff146ecd"
    },
    {
      "constant": false,
      "inputs": [
        {
          "name": "_email",
          "type": "string"
        },
        {
          "name": "_username",
          "type": "string"
        },
        {
          "name": "_firstName",
          "type": "string"
        },
        {
          "name": "_lastName",
          "type": "string"
        },
        {
          "name": "_password",
          "type": "string"
        }
      ],
      "name": "createUser",
      "outputs": [
        {
          "name": "",
          "type": "string"
        }
      ],
      "payable": false,
      "stateMutability": "nonpayable",
      "type": "function",
      "signature": "0x65c06f70"
    },
    {
      "constant": true,
      "inputs": [
        {
          "name": "_email",
          "type": "string"
        }
      ],
      "name": "getUser",
      "outputs": [
        {
          "name": "name",
          "type": "string"
        },
        {
          "name": "username",
          "type": "string"
        },
        {
          "name": "email",
          "type": "string"
        },
        {
          "name": "addr",
          "type": "address"
        }
      ],
      "payable": false,
      "stateMutability": "view",
      "type": "function",
      "signature": "0x31feb671"
    },
    {
      "constant": true,
      "inputs": [
        {
          "name": "_email",
          "type": "string"
        },
        {
          "name": "_password",
          "type": "string"
        }
      ],
      "name": "authenticateUser",
      "outputs": [
        {
          "name": "error",
          "type": "string"
        },
        {
          "name": "username",
          "type": "string"
        },
        {
          "name": "name",
          "type": "string"
        },
        {
          "name": "ethereumAddress",
          "type": "address"
        }
      ],
      "payable": false,
      "stateMutability": "view",
      "type": "function",
      "signature": "0x516a5435"
    },
    {
      "constant": false,
      "inputs": [
        {
          "name": "_email",
          "type": "string"
        },
        {
          "name": "_oldPassword",
          "type": "string"
        },
        {
          "name": "_newPassword",
          "type": "string"
        }
      ],
      "name": "changePassword",
      "outputs": [],
      "payable": false,
      "stateMutability": "nonpayable",
      "type": "function",
      "signature": "0xf05f31fc"
    },
    {
      "constant": false,
      "inputs": [
        {
          "name": "_email",
          "type": "string"
        },
        {
          "name": "newUsername",
          "type": "string"
        }
      ],
      "name": "changeUsername",
      "outputs": [
        {
          "name": "username",
          "type": "string"
        },
        {
          "name": "name",
          "type": "string"
        },
        {
          "name": "ethereumAddress",
          "type": "address"
        }
      ],
      "payable": false,
      "stateMutability": "nonpayable",
      "type": "function",
      "signature": "0x152a1c04"
    },
    {
      "constant": false,
      "inputs": [
        {
          "name": "_email",
          "type": "string"
        },
        {
          "name": "password",
          "type": "string"
        },
        {
          "name": "_newEmail",
          "type": "string"
        }
      ],
      "name": "changeEmail",
      "outputs": [
        {
          "name": "username",
          "type": "string"
        },
        {
          "name": "name",
          "type": "string"
        },
        {
          "name": "ethereumAddress",
          "type": "address"
        }
      ],
      "payable": false,
      "stateMutability": "nonpayable",
      "type": "function",
      "signature": "0xe81630f7"
    },
    {
      "constant": false,
      "inputs": [
        {
          "name": "_email",
          "type": "string"
        },
        {
          "name": "_password",
          "type": "string"
        }
      ],
      "name": "deleteUser",
      "outputs": [],
      "payable": false,
      "stateMutability": "nonpayable",
      "type": "function",
      "signature": "0xb7c40bb3"
    },
    {
      "constant": false,
      "inputs": [
        {
          "name": "_uploaderEmail",
          "type": "string"
        },
        {
          "name": "_subscriberEmail",
          "type": "string"
        }
      ],
      "name": "addSubscriber",
      "outputs": [],
      "payable": false,
      "stateMutability": "nonpayable",
      "type": "function",
      "signature": "0x2e6c6c43"
    },
    {
      "constant": false,
      "inputs": [
        {
          "name": "_uploaderEmail",
          "type": "string"
        },
        {
          "name": "_subscriberEmail",
          "type": "string"
        }
      ],
      "name": "removeSubscriber",
      "outputs": [],
      "payable": false,
      "stateMutability": "nonpayable",
      "type": "function",
      "signature": "0x5ce37f01"
    }
  ],
  "bytecode": "0x6080604052600060025534801561001557600080fd5b50614b9c806100256000396000f3fe6080604052600436106100af576000357c0100000000000000000000000000000000000000000000000000000000900463ffffffff1680630499d435146100b4578063152a1c04146101905780632e6c6c431461040757806331feb67114610566578063516a5435146107b25780635ce37f0114610a9557806365c06f7014610bf4578063b7c40bb314610f91578063e81630f7146110f0578063f05f31fc146113fe578063ff146ecd146115f4575b600080fd5b3480156100c057600080fd5b5061017a600480360360208110156100d757600080fd5b81019080803590602001906401000000008111156100f457600080fd5b82018360208201111561010657600080fd5b8035906020019184600183028401116401000000008311171561012857600080fd5b91908080601f016020809104026020016040519081016040528093929190818152602001838380828437600081840152601f19601f82011690508083019250505050505050919291929050505061161f565b6040518082815260200191505060405180910390f35b34801561019c57600080fd5b506102ed600480360360408110156101b357600080fd5b81019080803590602001906401000000008111156101d057600080fd5b8201836020820111156101e257600080fd5b8035906020019184600183028401116401000000008311171561020457600080fd5b91908080601f016020809104026020016040519081016040528093929190818152602001838380828437600081840152601f19601f8201169050808301925050505050505091929192908035906020019064010000000081111561026757600080fd5b82018360208201111561027957600080fd5b8035906020019184600183028401116401000000008311171561029b57600080fd5b91908080601f016020809104026020016040519081016040528093929190818152602001838380828437600081840152601f19601f820116905080830192505050505050509192919290505050611696565b6040518080602001806020018473ffffffffffffffffffffffffffffffffffffffff1673ffffffffffffffffffffffffffffffffffffffff168152602001838103835286818151815260200191508051906020019080838360005b83811015610363578082015181840152602081019050610348565b50505050905090810190601f1680156103905780820380516001836020036101000a031916815260200191505b50838103825285818151815260200191508051906020019080838360005b838110156103c95780820151818401526020810190506103ae565b50505050905090810190601f1680156103f65780820380516001836020036101000a031916815260200191505b509550505050505060405180910390f35b34801561041357600080fd5b506105646004803603604081101561042a57600080fd5b810190808035906020019064010000000081111561044757600080fd5b82018360208201111561045957600080fd5b8035906020019184600183028401116401000000008311171561047b57600080fd5b91908080601f016020809104026020016040519081016040528093929190818152602001838380828437600081840152601f19601f820116905080830192505050505050509192919290803590602001906401000000008111156104de57600080fd5b8201836020820111156104f057600080fd5b8035906020019184600183028401116401000000008311171561051257600080fd5b91908080601f016020809104026020016040519081016040528093929190818152602001838380828437600081840152601f19601f820116905080830192505050505050509192919290505050611a45565b005b34801561057257600080fd5b5061062c6004803603602081101561058957600080fd5b81019080803590602001906401000000008111156105a657600080fd5b8201836020820111156105b857600080fd5b803590602001918460018302840111640100000000831117156105da57600080fd5b91908080601f016020809104026020016040519081016040528093929190818152602001838380828437600081840152601f19601f820116905080830192505050505050509192919290505050611ccb565b604051808060200180602001806020018573ffffffffffffffffffffffffffffffffffffffff1673ffffffffffffffffffffffffffffffffffffffff168152602001848103845288818151815260200191508051906020019080838360005b838110156106a657808201518184015260208101905061068b565b50505050905090810190601f1680156106d35780820380516001836020036101000a031916815260200191505b50848103835287818151815260200191508051906020019080838360005b8381101561070c5780820151818401526020810190506106f1565b50505050905090810190601f1680156107395780820380516001836020036101000a031916815260200191505b50848103825286818151815260200191508051906020019080838360005b83811015610772578082015181840152602081019050610757565b50505050905090810190601f16801561079f5780820380516001836020036101000a031916815260200191505b5097505050505050505060405180910390f35b3480156107be57600080fd5b5061090f600480360360408110156107d557600080fd5b81019080803590602001906401000000008111156107f257600080fd5b82018360208201111561080457600080fd5b8035906020019184600183028401116401000000008311171561082657600080fd5b91908080601f016020809104026020016040519081016040528093929190818152602001838380828437600081840152601f19601f8201169050808301925050505050505091929192908035906020019064010000000081111561088957600080fd5b82018360208201111561089b57600080fd5b803590602001918460018302840111640100000000831117156108bd57600080fd5b91908080601f016020809104026020016040519081016040528093929190818152602001838380828437600081840152601f19601f820116905080830192505050505050509192919290505050611ffc565b604051808060200180602001806020018573ffffffffffffffffffffffffffffffffffffffff1673ffffffffffffffffffffffffffffffffffffffff168152602001848103845288818151815260200191508051906020019080838360005b8381101561098957808201518184015260208101905061096e565b50505050905090810190601f1680156109b65780820380516001836020036101000a031916815260200191505b50848103835287818151815260200191508051906020019080838360005b838110156109ef5780820151818401526020810190506109d4565b50505050905090810190601f168015610a1c5780820380516001836020036101000a031916815260200191505b50848103825286818151815260200191508051906020019080838360005b83811015610a55578082015181840152602081019050610a3a565b50505050905090810190601f168015610a825780820380516001836020036101000a031916815260200191505b5097505050505050505060405180910390f35b348015610aa157600080fd5b50610bf260048036036040811015610ab857600080fd5b8101908080359060200190640100000000811115610ad557600080fd5b820183602082011115610ae757600080fd5b80359060200191846001830284011164010000000083111715610b0957600080fd5b91908080601f016020809104026020016040519081016040528093929190818152602001838380828437600081840152601f19601f82011690508083019250505050505050919291929080359060200190640100000000811115610b6c57600080fd5b820183602082011115610b7e57600080fd5b80359060200191846001830284011164010000000083111715610ba057600080fd5b91908080601f016020809104026020016040519081016040528093929190818152602001838380828437600081840152601f19601f8201169050808301925050505050505091929192905050506126a0565b005b348015610c0057600080fd5b50610f16600480360360a0811015610c1757600080fd5b8101908080359060200190640100000000811115610c3457600080fd5b820183602082011115610c4657600080fd5b80359060200191846001830284011164010000000083111715610c6857600080fd5b91908080601f016020809104026020016040519081016040528093929190818152602001838380828437600081840152601f19601f82011690508083019250505050505050919291929080359060200190640100000000811115610ccb57600080fd5b820183602082011115610cdd57600080fd5b80359060200191846001830284011164010000000083111715610cff57600080fd5b91908080601f016020809104026020016040519081016040528093929190818152602001838380828437600081840152601f19601f82011690508083019250505050505050919291929080359060200190640100000000811115610d6257600080fd5b820183602082011115610d7457600080fd5b80359060200191846001830284011164010000000083111715610d9657600080fd5b91908080601f016020809104026020016040519081016040528093929190818152602001838380828437600081840152601f19601f82011690508083019250505050505050919291929080359060200190640100000000811115610df957600080fd5b820183602082011115610e0b57600080fd5b80359060200191846001830284011164010000000083111715610e2d57600080fd5b91908080601f016020809104026020016040519081016040528093929190818152602001838380828437600081840152601f19601f82011690508083019250505050505050919291929080359060200190640100000000811115610e9057600080fd5b820183602082011115610ea257600080fd5b80359060200191846001830284011164010000000083111715610ec457600080fd5b91908080601f016020809104026020016040519081016040528093929190818152602001838380828437600081840152601f19601f820116905080830192505050505050509192919290505050612aba565b6040518080602001828103825283818151815260200191508051906020019080838360005b83811015610f56578082015181840152602081019050610f3b565b50505050905090810190601f168015610f835780820380516001836020036101000a031916815260200191505b509250505060405180910390f35b348015610f9d57600080fd5b506110ee60048036036040811015610fb457600080fd5b8101908080359060200190640100000000811115610fd157600080fd5b820183602082011115610fe357600080fd5b8035906020019184600183028401116401000000008311171561100557600080fd5b91908080601f016020809104026020016040519081016040528093929190818152602001838380828437600081840152601f19601f8201169050808301925050505050505091929192908035906020019064010000000081111561106857600080fd5b82018360208201111561107a57600080fd5b8035906020019184600183028401116401000000008311171561109c57600080fd5b91908080601f016020809104026020016040519081016040528093929190818152602001838380828437600081840152601f19601f820116905080830192505050505050509192919290505050612fd0565b005b3480156110fc57600080fd5b506112e46004803603606081101561111357600080fd5b810190808035906020019064010000000081111561113057600080fd5b82018360208201111561114257600080fd5b8035906020019184600183028401116401000000008311171561116457600080fd5b91908080601f016020809104026020016040519081016040528093929190818152602001838380828437600081840152601f19601f820116905080830192505050505050509192919290803590602001906401000000008111156111c757600080fd5b8201836020820111156111d957600080fd5b803590602001918460018302840111640100000000831117156111fb57600080fd5b91908080601f016020809104026020016040519081016040528093929190818152602001838380828437600081840152601f19601f8201169050808301925050505050505091929192908035906020019064010000000081111561125e57600080fd5b82018360208201111561127057600080fd5b8035906020019184600183028401116401000000008311171561129257600080fd5b91908080601f016020809104026020016040519081016040528093929190818152602001838380828437600081840152601f19601f8201169050808301925050505050505091929192905050506136f7565b6040518080602001806020018473ffffffffffffffffffffffffffffffffffffffff1673ffffffffffffffffffffffffffffffffffffffff168152602001838103835286818151815260200191508051906020019080838360005b8381101561135a57808201518184015260208101905061133f565b50505050905090810190601f1680156113875780820380516001836020036101000a031916815260200191505b50838103825285818151815260200191508051906020019080838360005b838110156113c05780820151818401526020810190506113a5565b50505050905090810190601f1680156113ed5780820380516001836020036101000a031916815260200191505b509550505050505060405180910390f35b34801561140a57600080fd5b506115f26004803603606081101561142157600080fd5b810190808035906020019064010000000081111561143e57600080fd5b82018360208201111561145057600080fd5b8035906020019184600183028401116401000000008311171561147257600080fd5b91908080601f016020809104026020016040519081016040528093929190818152602001838380828437600081840152601f19601f820116905080830192505050505050509192919290803590602001906401000000008111156114d557600080fd5b8201836020820111156114e757600080fd5b8035906020019184600183028401116401000000008311171561150957600080fd5b91908080601f016020809104026020016040519081016040528093929190818152602001838380828437600081840152601f19601f8201169050808301925050505050505091929192908035906020019064010000000081111561156c57600080fd5b82018360208201111561157e57600080fd5b803590602001918460018302840111640100000000831117156115a057600080fd5b91908080601f016020809104026020016040519081016040528093929190818152602001838380828437600081840152601f19601f820116905080830192505050505050509192919290505050613dff565b005b34801561160057600080fd5b506116096140ae565b6040518082815260200191505060405180910390f35b600080826040518082805190602001908083835b6020831015156116585780518252602082019150602081019050602083039250611633565b6001836020036101000a0380198251168184511680821785525050505050509050019150509081526020016040518091039020600a01549050919050565b60608060006116a4856140b8565b1515611718576040517f08c379a00000000000000000000000000000000000000000000000000000000081526004018080602001828103825260138152602001807f5573657220646f6573206e6f742065786973740000000000000000000000000081525060200191505060405180910390fd5b836000866040518082805190602001908083835b602083101515611751578051825260208201915060208101905060208303925061172c565b6001836020036101000a0380198251168184511680821785525050505050509050019150509081526020016040518091039020600001908051906020019061179a929190614859565b506000856040518082805190602001908083835b6020831015156117d357805182526020820191506020810190506020830392506117ae565b6001836020036101000a03801982511681845116808217855250505050505090500191505090815260200160405180910390206000018054600181600116156101000203166002900480601f01602080910402602001604051908101604052809291908181526020018280546001816001161561010002031660029004801561189d5780601f106118725761010080835404028352916020019161189d565b820191906000526020600020905b81548152906001019060200180831161188057829003601f168201915b505050505092506000856040518082805190602001908083835b6020831015156118dc57805182526020820191506020810190506020830392506118b7565b6001836020036101000a03801982511681845116808217855250505050505090500191505090815260200160405180910390206001018054600181600116156101000203166002900480601f0160208091040260200160405190810160405280929190818152602001828054600181600116156101000203166002900480156119a65780601f1061197b576101008083540402835291602001916119a6565b820191906000526020600020905b81548152906001019060200180831161198957829003601f168201915b505050505091506000856040518082805190602001908083835b6020831015156119e557805182526020820191506020810190506020830392506119c0565b6001836020036101000a038019825116818451168082178552505050505050905001915050908152602001604051809103902060020160009054906101000a900473ffffffffffffffffffffffffffffffffffffffff1690509250925092565b611a4e826140b8565b1515611ac2576040517f08c379a00000000000000000000000000000000000000000000000000000000081526004018080602001828103825260178152602001807f55706c6f6164657220646f6573206e6f7420657869737400000000000000000081525060200191505060405180910390fd5b611acb816140b8565b1515611b3f576040517f08c379a00000000000000000000000000000000000000000000000000000000081526004018080602001828103825260198152602001807f5375627363726962657220646f6573206e6f742065786973740000000000000081525060200191505060405180910390fd5b600080836040518082805190602001908083835b602083101515611b785780518252602082019150602081019050602083039250611b53565b6001836020036101000a03801982511681845116808217855250505050505090500191505090815260200160405180910390209050600080836040518082805190602001908083835b602083101515611be65780518252602082019150602081019050602083039250611bc1565b6001836020036101000a0380198251168184511680821785525050505050509050019150509081526020016040518091039020905081600a016000815480929190600101919050555081600501839080600181540180825580915050906001820390600052602060002001600090919290919091509080519060200190611c6e929190614859565b5050806009016000815480929190600101919050555080600801849080600181540180825580915050906001820390600052602060002001600090919290919091509080519060200190611cc3929190614859565b505050505050565b60608060606000611cdb856140b8565b1515611d4f576040517f08c379a00000000000000000000000000000000000000000000000000000000081526004018080602001828103825260148152602001807f5573657220646f6573206e6f742065786973747300000000000000000000000081525060200191505060405180910390fd5b6000856040518082805190602001908083835b602083101515611d875780518252602082019150602081019050602083039250611d62565b6001836020036101000a03801982511681845116808217855250505050505090500191505090815260200160405180910390206001018054600181600116156101000203166002900480601f016020809104026020016040519081016040528092919081815260200182805460018160011615610100020316600290048015611e515780601f10611e2657610100808354040283529160200191611e51565b820191906000526020600020905b815481529060010190602001808311611e3457829003601f168201915b505050505093506000856040518082805190602001908083835b602083101515611e905780518252602082019150602081019050602083039250611e6b565b6001836020036101000a03801982511681845116808217855250505050505090500191505090815260200160405180910390206000018054600181600116156101000203166002900480601f016020809104026020016040519081016040528092919081815260200182805460018160011615610100020316600290048015611f5a5780601f10611f2f57610100808354040283529160200191611f5a565b820191906000526020600020905b815481529060010190602001808311611f3d57829003601f168201915b505050505092508491506000856040518082805190602001908083835b602083101515611f9c5780518252602082019150602081019050602083039250611f77565b6001836020036101000a038019825116818451168082178552505050505050905001915050908152602001604051809103902060020160009054906101000a900473ffffffffffffffffffffffffffffffffffffffff1690509193509193565b6060806060600061200c866140b8565b1515612080576040517f08c379a00000000000000000000000000000000000000000000000000000000081526004018080602001828103825260138152602001807f5573657220646f6573206e6f742065786973740000000000000000000000000081525060200191505060405180910390fd5b6120886148d9565b6000876040518082805190602001908083835b6020831015156120c0578051825260208201915060208101905060208303925061209b565b6001836020036101000a03801982511681845116808217855250505050505090500191505090815260200160405180910390206101606040519081016040529081600082018054600181600116156101000203166002900480601f0160208091040260200160405190810160405280929190818152602001828054600181600116156101000203166002900480156121995780601f1061216e57610100808354040283529160200191612199565b820191906000526020600020905b81548152906001019060200180831161217c57829003601f168201915b50505050508152602001600182018054600181600116156101000203166002900480601f01602080910402602001604051908101604052809291908181526020018280546001816001161561010002031660029004801561223b5780601f106122105761010080835404028352916020019161223b565b820191906000526020600020905b81548152906001019060200180831161221e57829003601f168201915b505050505081526020016002820160009054906101000a900473ffffffffffffffffffffffffffffffffffffffff1673ffffffffffffffffffffffffffffffffffffffff1673ffffffffffffffffffffffffffffffffffffffff168152602001600382018054600181600116156101000203166002900480601f0160208091040260200160405190810160405280929190818152602001828054600181600116156101000203166002900480156123335780601f1061230857610100808354040283529160200191612333565b820191906000526020600020905b81548152906001019060200180831161231657829003601f168201915b505050505081526020016004820160009054906101000a900460ff1615151515815260200160058201805480602002602001604051908101604052809291908181526020016000905b82821015612438578382906000526020600020018054600181600116156101000203166002900480601f0160208091040260200160405190810160405280929190818152602001828054600181600116156101000203166002900480156124245780601f106123f957610100808354040283529160200191612424565b820191906000526020600020905b81548152906001019060200180831161240757829003601f168201915b50505050508152602001906001019061237c565b505050508152602001600682015481526020016007820180548060200260200160405190810160405280929190818152602001828054801561249957602002820191906000526020600020905b815481526020019060010190808311612485575b5050505050815260200160088201805480602002602001604051908101604052809291908181526020016000905b82821015612583578382906000526020600020018054600181600116156101000203166002900480601f01602080910402602001604051908101604052809291908181526020018280546001816001161561010002031660029004801561256f5780601f106125445761010080835404028352916020019161256f565b820191906000526020600020905b81548152906001019060200180831161255257829003601f168201915b5050505050815260200190600101906124c7565b50505050815260200160098201548152602001600a8201548152505090506125af8160600151876141ac565b1515612649576040517f08c379a00000000000000000000000000000000000000000000000000000000081526004018080602001828103825260218152602001807f506c6561736520636865636b207468652070617373776f726420656e7465726581526020017f640000000000000000000000000000000000000000000000000000000000000081525060400191505060405180910390fd5b6040805190810160405280600881526020017f4e6f206572726f7200000000000000000000000000000000000000000000000081525094508060000151935080602001519250806040015191505092959194509250565b6126a9826140b8565b151561271d576040517f08c379a00000000000000000000000000000000000000000000000000000000081526004018080602001828103825260178152602001807f55706c6f6164657220646f6573206e6f7420657869737400000000000000000081525060200191505060405180910390fd5b612726816140b8565b151561279a576040517f08c379a00000000000000000000000000000000000000000000000000000000081526004018080602001828103825260198152602001807f5375627363726962657220646f6573206e6f742065786973740000000000000081525060200191505060405180910390fd5b600080836040518082805190602001908083835b6020831015156127d357805182526020820191506020810190506020830392506127ae565b6001836020036101000a03801982511681845116808217855250505050505090500191505090815260200160405180910390209050600080836040518082805190602001908083835b602083101515612841578051825260208201915060208101905060208303925061281c565b6001836020036101000a0380198251168184511680821785525050505050509050019150509081526020016040518091039020905060008090505b82600a015481101561297f57612945836005018281548110151561289c57fe5b906000526020600020018054600181600116156101000203166002900480601f01602080910402602001604051908101604052809291908181526020018280546001816001161561010002031660029004801561293a5780601f1061290f5761010080835404028352916020019161293a565b820191906000526020600020905b81548152906001019060200180831161291d57829003601f168201915b5050505050856141ac565b1561297257826005018181548110151561295b57fe5b906000526020600020016000612971919061494c565b5b808060010191505061287c565b5081600a01600081548092919060019003919050555060008090505b8160090154811015612a9e57612a648583600801838154811015156129bc57fe5b906000526020600020018054600181600116156101000203166002900480601f016020809104026020016040519081016040528092919081815260200182805460018160011615610100020316600290048015612a5a5780601f10612a2f57610100808354040283529160200191612a5a565b820191906000526020600020905b815481529060010190602001808311612a3d57829003601f168201915b50505050506141ac565b15612a91578160080181815481101515612a7a57fe5b906000526020600020016000612a90919061494c565b5b808060010191505061299b565b5080600a01600081548092919060019003919050555050505050565b6060612ac5866140b8565b151515612b3a576040517f08c379a00000000000000000000000000000000000000000000000000000000081526004018080602001828103825260138152602001807f5573657220616c7265616479206578697374730000000000000000000000000081525060200191505060405180910390fd5b612b438561429f565b1515612bdd576040517f08c379a00000000000000000000000000000000000000000000000000000000081526004018080602001828103825260348152602001807f557365726e616d6520616c72656164792074616b656e2e20506c65617365207481526020017f727920616e6f746865722075736572206e616d6500000000000000000000000081525060400191505060405180910390fd5b846000876040518082805190602001908083835b602083101515612c165780518252602082019150602081019050602083039250612bf1565b6001836020036101000a03801982511681845116808217855250505050505090500191505090815260200160405180910390206000019080519060200190612c5f929190614859565b506001869080600181540180825580915050906001820390600052602060002001600090919290919091509080519060200190612c9d929190614859565b5050336000876040518082805190602001908083835b602083101515612cd85780518252602082019150602081019050602083039250612cb3565b6001836020036101000a038019825116818451168082178552505050505050905001915050908152602001604051809103902060020160006101000a81548173ffffffffffffffffffffffffffffffffffffffff021916908373ffffffffffffffffffffffffffffffffffffffff160217905550816000876040518082805190602001908083835b602083101515612d855780518252602082019150602081019050602083039250612d60565b6001836020036101000a03801982511681845116808217855250505050505090500191505090815260200160405180910390206003019080519060200190612dce929190614859565b50600080876040518082805190602001908083835b602083101515612e085780518252602082019150602081019050602083039250612de3565b6001836020036101000a0380198251168184511680821785525050505050509050019150509081526020016040518091039020600a0181905550600080876040518082805190602001908083835b602083101515612e7b5780518252602082019150602081019050602083039250612e56565b6001836020036101000a038019825116818451168082178552505050505050905001915050908152602001604051809103902060060181905550612ef5846040805190810160405280600181526020017f200000000000000000000000000000000000000000000000000000000000000081525085614406565b6000876040518082805190602001908083835b602083101515612f2d5780518252602082019150602081019050602083039250612f08565b6001836020036101000a03801982511681845116808217855250505050505090500191505090815260200160405180910390206001019080519060200190612f76929190614859565b5060026000815480929190600101919050555060606040805190810160405280600881526020017f4e6f206572726f7200000000000000000000000000000000000000000000000081525090508091505095945050505050565b612fd9826140b8565b151561304d576040517f08c379a00000000000000000000000000000000000000000000000000000000081526004018080602001828103825260138152602001807f5573657220646f6573206e6f742065786973740000000000000000000000000081525060200191505060405180910390fd5b61315d6000836040518082805190602001908083835b6020831015156130885780518252602082019150602081019050602083039250613063565b6001836020036101000a03801982511681845116808217855250505050505090500191505090815260200160405180910390206003018054600181600116156101000203166002900480601f0160208091040260200160405190810160405280929190818152602001828054600181600116156101000203166002900480156131525780601f1061312757610100808354040283529160200191613152565b820191906000526020600020905b81548152906001019060200180831161313557829003601f168201915b5050505050826141ac565b15156131f7576040517f08c379a00000000000000000000000000000000000000000000000000000000081526004018080602001828103825260308152602001807f456e74657265642070617373776f726420646f6573206e6f74206d617463682081526020017f63757272656e742070617373776f72640000000000000000000000000000000081525060400191505060405180910390fd5b600080836040518082805190602001908083835b602083101515613230578051825260208201915060208101905060208303925061320b565b6001836020036101000a0380198251168184511680821785525050505050509050019150509081526020016040518091039020905060008090505b81600a01548110156135d05760008090505b6000836005018381548110151561329057fe5b9060005260206000200160405180828054600181600116156101000203166002900480156132f55780601f106132d35761010080835404028352918201916132f5565b820191906000526020600020905b8154815290600101906020018083116132e1575b505091505090815260200160405180910390206009015481101561352357600080846005018481548110151561332757fe5b90600052602060002001604051808280546001816001161561010002031660029004801561338c5780601f1061336a57610100808354040283529182019161338c565b820191906000526020600020905b815481529060010190602001808311613378575b50509150509081526020016040518091039020600801828154811015156133af57fe5b90600052602060002001905061345e818054600181600116156101000203166002900480601f0160208091040260200160405190810160405280929190818152602001828054600181600116156101000203166002900480156134535780601f1061342857610100808354040283529160200191613453565b820191906000526020600020905b81548152906001019060200180831161343657829003601f168201915b5050505050876141ac565b15613515576000846005018481548110151561347657fe5b9060005260206000200160405180828054600181600116156101000203166002900480156134db5780601f106134b95761010080835404028352918201916134db565b820191906000526020600020905b8154815290600101906020018083116134c7575b50509150509081526020016040518091039020600801828154811015156134fe57fe5b906000526020600020016000613514919061494c565b5b50808060010191505061327d565b506000826005018281548110151561353757fe5b90600052602060002001604051808280546001816001161561010002031660029004801561359c5780601f1061357a57610100808354040283529182019161359c565b820191906000526020600020905b815481529060010190602001808311613588575b505091505090815260200160405180910390206009016000815480929190600190039190505550808060010191505061326b565b506000836040518082805190602001908083835b60208310151561360957805182526020820191506020810190506020830392506135e4565b6001836020036101000a03801982511681845116808217855250505050505090500191505090815260200160405180910390206000808201600061364d919061494c565b60018201600061365d919061494c565b6002820160006101000a81549073ffffffffffffffffffffffffffffffffffffffff0219169055600382016000613694919061494c565b6004820160006101000a81549060ff02191690556005820160006136b89190614994565b60068201600090556007820160006136d091906149b5565b6008820160006136e09190614994565b6009820160009055600a8201600090555050505050565b6060806000613705866140b8565b1515613779576040517f08c379a00000000000000000000000000000000000000000000000000000000081526004018080602001828103825260138152602001807f5573657220646f6573206e6f742065786973740000000000000000000000000081525060200191505060405180910390fd5b6138896000876040518082805190602001908083835b6020831015156137b4578051825260208201915060208101905060208303925061378f565b6001836020036101000a03801982511681845116808217855250505050505090500191505090815260200160405180910390206003018054600181600116156101000203166002900480601f01602080910402602001604051908101604052809291908181526020018280546001816001161561010002031660029004801561387e5780601f106138535761010080835404028352916020019161387e565b820191906000526020600020905b81548152906001019060200180831161386157829003601f168201915b5050505050866141ac565b1515613923576040517f08c379a00000000000000000000000000000000000000000000000000000000081526004018080602001828103825260308152602001807f456e74657265642070617373776f726420646f6573206e6f74206d617463682081526020017f63757272656e742070617373776f72640000000000000000000000000000000081525060400191505060405180910390fd5b600080876040518082805190602001908083835b60208310151561395c5780518252602082019150602081019050602083039250613937565b6001836020036101000a038019825116818451168082178552505050505050905001915050908152602001604051809103902090506000876040518082805190602001908083835b6020831015156139c957805182526020820191506020810190506020830392506139a4565b6001836020036101000a038019825116818451168082178552505050505050905001915050908152602001604051809103902060008082016000613a0d919061494c565b600182016000613a1d919061494c565b6002820160006101000a81549073ffffffffffffffffffffffffffffffffffffffff0219169055600382016000613a54919061494c565b6004820160006101000a81549060ff0219169055600582016000613a789190614994565b6006820160009055600782016000613a9091906149b5565b600882016000613aa09190614994565b6009820160009055600a8201600090555050806000866040518082805190602001908083835b602083101515613aeb5780518252602082019150602081019050602083039250613ac6565b6001836020036101000a038019825116818451168082178552505050505050905001915050908152602001604051809103902060008201816000019080546001816001161561010002031660029004613b459291906149d6565b5060018201816001019080546001816001161561010002031660029004613b6d9291906149d6565b506002820160009054906101000a900473ffffffffffffffffffffffffffffffffffffffff168160020160006101000a81548173ffffffffffffffffffffffffffffffffffffffff021916908373ffffffffffffffffffffffffffffffffffffffff16021790555060038201816003019080546001816001161561010002031660029004613bfc9291906149d6565b506004820160009054906101000a900460ff168160040160006101000a81548160ff0219169083151502179055506005820181600501908054613c40929190614a5d565b50600682015481600601556007820181600701908054613c61929190614acd565b506008820181600801908054613c78929190614a5d565b5060098201548160090155600a82015481600a0155905050806000018054600181600116156101000203166002900480601f016020809104026020016040519081016040528092919081815260200182805460018160011615610100020316600290048015613d285780601f10613cfd57610100808354040283529160200191613d28565b820191906000526020600020905b815481529060010190602001808311613d0b57829003601f168201915b50505050509350806001018054600181600116156101000203166002900480601f016020809104026020016040519081016040528092919081815260200182805460018160011615610100020316600290048015613dc75780601f10613d9c57610100808354040283529160200191613dc7565b820191906000526020600020905b815481529060010190602001808311613daa57829003601f168201915b505050505092508060020160009054906101000a900473ffffffffffffffffffffffffffffffffffffffff1691505093509350939050565b613e08836140b8565b1515613e7c576040517f08c379a00000000000000000000000000000000000000000000000000000000081526004018080602001828103825260138152602001807f5573657220646f6573206e6f742065786973740000000000000000000000000081525060200191505060405180910390fd5b613f8c6000846040518082805190602001908083835b602083101515613eb75780518252602082019150602081019050602083039250613e92565b6001836020036101000a03801982511681845116808217855250505050505090500191505090815260200160405180910390206003018054600181600116156101000203166002900480601f016020809104026020016040519081016040528092919081815260200182805460018160011615610100020316600290048015613f815780601f10613f5657610100808354040283529160200191613f81565b820191906000526020600020905b815481529060010190602001808311613f6457829003601f168201915b5050505050836141ac565b1515614026576040517f08c379a00000000000000000000000000000000000000000000000000000000081526004018080602001828103825260308152602001807f456e74657265642070617373776f726420646f6573206e6f74206d617463682081526020017f63757272656e742070617373776f72640000000000000000000000000000000081525060400191505060405180910390fd5b806000846040518082805190602001908083835b60208310151561405f578051825260208201915060208101905060208303925061403a565b6001836020036101000a038019825116818451168082178552505050505050905001915050908152602001604051809103902060030190805190602001906140a8929190614859565b50505050565b6000600254905090565b600080600090505b6002548110156141a1576141856001828154811015156140dc57fe5b906000526020600020018054600181600116156101000203166002900480601f01602080910402602001604051908101604052809291908181526020018280546001816001161561010002031660029004801561417a5780601f1061414f5761010080835404028352916020019161417a565b820191906000526020600020905b81548152906001019060200180831161415d57829003601f168201915b5050505050846141ac565b156141945760019150506141a7565b80806001019150506140c0565b50600090505b919050565b6000816040516020018082805190602001908083835b6020831015156141e757805182526020820191506020810190506020830392506141c2565b6001836020036101000a03801982511681845116808217855250505050505090500191505060405160208183030381529060405280519060200120836040516020018082805190602001908083835b60208310151561425b5780518252602082019150602081019050602083039250614236565b6001836020036101000a0380198251168184511680821785525050505050509050019150506040516020818303038152906040528051906020012014905092915050565b600080600090505b6002548110156143fb576143df60006001838154811015156142c557fe5b90600052602060002001604051808280546001816001161561010002031660029004801561432a5780601f1061430857610100808354040283529182019161432a565b820191906000526020600020905b815481529060010190602001808311614316575b505091505090815260200160405180910390206000018054600181600116156101000203166002900480601f0160208091040260200160405190810160405280929190818152602001828054600181600116156101000203166002900480156143d45780601f106143a9576101008083540402835291602001916143d4565b820191906000526020600020905b8154815290600101906020018083116143b757829003601f168201915b5050505050846141ac565b156143ee576000915050614401565b80806001019150506142a7565b50600190505b919050565b60606144358484846020604051908101604052806000815250602060405190810160405280600081525061443e565b90509392505050565b6060808690506060869050606086905060608690506060869050606081518351855187518951010101016040519080825280601f01601f19166020018201604052801561449a5781602001600182028038833980820191505090505b509050606081905060008090506000809050600090505b88518110156145645788818151811015156144c857fe5b9060200101517f010000000000000000000000000000000000000000000000000000000000000090047f010000000000000000000000000000000000000000000000000000000000000002838380600101945081518110151561452757fe5b9060200101907effffffffffffffffffffffffffffffffffffffffffffffffffffffffffffff1916908160001a90535080806001019150506144b1565b600090505b875181101561461c57878181518110151561458057fe5b9060200101517f010000000000000000000000000000000000000000000000000000000000000090047f01000000000000000000000000000000000000000000000000000000000000000283838060010194508151811015156145df57fe5b9060200101907effffffffffffffffffffffffffffffffffffffffffffffffffffffffffffff1916908160001a9053508080600101915050614569565b600090505b86518110156146d457868181518110151561463857fe5b9060200101517f010000000000000000000000000000000000000000000000000000000000000090047f010000000000000000000000000000000000000000000000000000000000000002838380600101945081518110151561469757fe5b9060200101907effffffffffffffffffffffffffffffffffffffffffffffffffffffffffffff1916908160001a9053508080600101915050614621565b600090505b855181101561478c5785818151811015156146f057fe5b9060200101517f010000000000000000000000000000000000000000000000000000000000000090047f010000000000000000000000000000000000000000000000000000000000000002838380600101945081518110151561474f57fe5b9060200101907effffffffffffffffffffffffffffffffffffffffffffffffffffffffffffff1916908160001a90535080806001019150506146d9565b600090505b84518110156148445784818151811015156147a857fe5b9060200101517f010000000000000000000000000000000000000000000000000000000000000090047f010000000000000000000000000000000000000000000000000000000000000002838380600101945081518110151561480757fe5b9060200101907effffffffffffffffffffffffffffffffffffffffffffffffffffffffffffff1916908160001a9053508080600101915050614791565b82995050505050505050505095945050505050565b828054600181600116156101000203166002900490600052602060002090601f016020900481019282601f1061489a57805160ff19168380011785556148c8565b828001600101855582156148c8579182015b828111156148c75782518255916020019190600101906148ac565b5b5090506148d59190614b1f565b5090565b610160604051908101604052806060815260200160608152602001600073ffffffffffffffffffffffffffffffffffffffff168152602001606081526020016000151581526020016060815260200160008152602001606081526020016060815260200160008152602001600081525090565b50805460018160011615610100020316600290046000825580601f106149725750614991565b601f0160209004906000526020600020908101906149909190614b1f565b5b50565b50805460008255906000526020600020908101906149b29190614b44565b50565b50805460008255906000526020600020908101906149d39190614b1f565b50565b828054600181600116156101000203166002900490600052602060002090601f016020900481019282601f10614a0f5780548555614a4c565b82800160010185558215614a4c57600052602060002091601f016020900482015b82811115614a4b578254825591600101919060010190614a30565b5b509050614a599190614b1f565b5090565b828054828255906000526020600020908101928215614abc5760005260206000209182015b82811115614abb5782829080546001816001161561010002031660029004614aab9291906149d6565b5091600101919060010190614a82565b5b509050614ac99190614b44565b5090565b828054828255906000526020600020908101928215614b0e5760005260206000209182015b82811115614b0d578254825591600101919060010190614af2565b5b509050614b1b9190614b1f565b5090565b614b4191905b80821115614b3d576000816000905550600101614b25565b5090565b90565b614b6d91905b80821115614b695760008181614b60919061494c565b50600101614b4a565b5090565b9056fea165627a7a72305820fc095201e20f27a27fa32493e6c283a584f40c629d9ee63b5783e886cc08c8d20029",
  "source": "pragma solidity ^0.5.0;\r\ncontract UserStore {\r\n\r\n    struct User {\r\n        string username;\r\n        string name;\r\n        address ethereumAddress;\r\n        string password; // Contains the hashed version of the password.\r\n        bool isReal; // To check if the user actually exists.\r\n        string[] subscribers;\r\n        uint videoCount;\r\n        uint[] videos;\r\n        string[] subscribedTo;\r\n        uint subscribedToCount;\r\n        uint subscribersCount;\r\n    }\r\n\r\n\r\n    mapping (string=>User) userMapping;\r\n    string[] emails;\r\n    uint userCount = 0;\r\n\r\n    // Testing functions i.e. functions used for testing. Comment out before actually using the smart contract\r\n\r\n    function getSubscriberCount(string memory _uploaderEmail)\r\n    public\r\n    view\r\n    returns (uint count) {\r\n        count = userMapping[_uploaderEmail].subscribersCount;\r\n    }\r\n\r\n    function getEmailCount()\r\n    public\r\n    view\r\n    returns (uint)\r\n    {\r\n        return userCount;\r\n    }\r\n\r\n    // Events\r\n\r\n    event createdUser(string email, string username);\r\n\r\n    function checkUserExistence(string memory _email)\r\n    internal\r\n    view\r\n    returns (bool)\r\n    {\r\n        for (uint i = 0;i < userCount;i++) {\r\n            if (compareStrings(emails[i], _email)) {\r\n                return true;\r\n            }\r\n        }\r\n        return false;\r\n    }\r\n\r\n\r\n    function checkUserNameExistence(string memory _username)\r\n    internal\r\n    view\r\n    returns (bool)\r\n    {\r\n        for (uint i = 0;i < userCount;i++) {\r\n            if (compareStrings(userMapping[emails[i]].username, _username)) {\r\n                return false;\r\n            }\r\n        }\r\n        return true;\r\n    }\r\n\r\n    function createUser(\r\n        string memory _email, \r\n        string memory _username, \r\n        string memory _firstName, \r\n        string memory _lastName, \r\n        string memory _password)\r\n    public\r\n    returns (string memory)\r\n    {\r\n        // This function is analogous to the sign up user function except this is the server side processing of that process.\r\n        // Some validations (also called Guard Functions) are required before creating the user in the store.\r\n        // 1. Check if the user already exists.\r\n        require(!checkUserExistence(_email), \"User already exists\"); \r\n        // Using require function. Please refer solidity documentation for more information.\r\n        // Other guard functions go here.\r\n        // add function to check if the username is already being used. \r\n        // This is to ensure that the username is unique\r\n        require(\r\n            checkUserNameExistence(_username),\r\n            \"Username already taken. Please try another user name\" \r\n        );\r\n\r\n        userMapping[_email].username = _username;\r\n        emails.push(_email);\r\n        userMapping[_email].ethereumAddress = msg.sender;\r\n        userMapping[_email].password = _password;\r\n        userMapping[_email].subscribersCount = 0;\r\n        userMapping[_email].videoCount = 0;\r\n        userMapping[_email].name = strConcat(_firstName, \" \", _lastName);\r\n        userCount++;\r\n\r\n        // emit createdUser(_email, _username);\r\n        string memory error = \"No error\";\r\n        return error;\r\n    }\r\n\r\n    function getUser(string memory _email)\r\n    public\r\n    view\r\n    returns(\r\n        string memory name,\r\n        string memory username,\r\n        string memory email,\r\n        address addr\r\n    )\r\n    {\r\n\r\n        // Some validations (also called Guard Functions) are required before creating the user in the store.\r\n        // 1. Check if the user already exists.\r\n        require(checkUserExistence(_email), \"User does not exists\"); \r\n        // Using require function. Please refer solidity documentation for more information.\r\n        // Other guard functions go here.\r\n\r\n        name = userMapping[_email].name;\r\n        username = userMapping[_email].username;\r\n        email = _email;\r\n        addr = userMapping[_email].ethereumAddress;\r\n    }\r\n\r\n    function authenticateUser(string memory _email, string memory _password)\r\n    public\r\n    view\r\n    returns (\r\n        string memory error,\r\n        string memory username,\r\n        string memory name,\r\n        address ethereumAddress\r\n    )\r\n    {\r\n        // If the email password combo is correct, then the user is authentic. If the user is authentic, return the user object\r\n        // The password is not the actual password, but the hashed version of the password. The hashing will occur at the client side\r\n        // i.e. the client sends the hashed password and not the actual password.\r\n\r\n        // Guard Functions\r\n        // 1. Check if the user exists in the store.\r\n        require(checkUserExistence(_email), \"User does not exist\");\r\n        // 2. The password entered must be equal to the one stored in the contract.\r\n        User memory foo = userMapping[_email];\r\n        require(compareStrings(foo.password, _password), \"Please check the password entered\");\r\n\r\n        // If all the guard conditions pass, return the User contract(object).\r\n\r\n        error = \"No error\";\r\n        username = foo.username;\r\n        name = foo.name;\r\n        ethereumAddress = foo.ethereumAddress;\r\n\r\n    }\r\n\r\n    //------------------------------------- User Utility functions start here -------------------------------------//\r\n\r\n    function changePassword(string memory _email, string memory _oldPassword, string memory _newPassword)\r\n    public\r\n    {\r\n        // Utility function that allows the user to change their password.\r\n\r\n        // Guard Functions\r\n        // 1. Check if the User exists in the store.\r\n        require(checkUserExistence(_email), \"User does not exist\");\r\n        // 2. Check if the _oldPassword is equal to the current Password of the user.\r\n        require(compareStrings(userMapping[_email].password, _oldPassword), \"Entered password does not match current password\");\r\n\r\n        // If all guard conditions satisfy, update the password.\r\n        userMapping[_email].password = _newPassword;\r\n\r\n        // username = userMapping[_email].username;\r\n        // name = userMapping[_email].name;\r\n        // ethereumAddress = userMapping[_email].ethereumAddress;\r\n\r\n    }\r\n\r\n    function changeUsername(string memory _email, string memory newUsername)\r\n    public\r\n    returns (\r\n        string memory username,\r\n        string memory name,\r\n        address ethereumAddress\r\n    )\r\n    {\r\n        // Utility function that allows the user to change their username\r\n\r\n        // Guard Functions\r\n        // 1. Check if the user exists in the store.\r\n        require(checkUserExistence(_email), \"User does not exist\");\r\n\r\n        // Update the user's username.\r\n        userMapping[_email].username = newUsername;\r\n\r\n        username = userMapping[_email].username;\r\n        name = userMapping[_email].name;\r\n        ethereumAddress = userMapping[_email].ethereumAddress;\r\n\r\n    }\r\n\r\n    function changeEmail(string memory _email, string memory password, string memory _newEmail)\r\n    public\r\n    returns (\r\n        string memory username,\r\n        string memory name,\r\n        address ethereumAddress\r\n    )\r\n    {\r\n        // Utility function that allows the user to change their password.\r\n\r\n        // Guard Functions\r\n        // 1. Check if the User exists in the store.\r\n        require(checkUserExistence(_email), \"User does not exist\");\r\n        // 2. Check if the _oldPassword is equal to the current Password of the user.\r\n        require(compareStrings(userMapping[_email].password, password), \"Entered password does not match current password\");\r\n\r\n        // Create a temp variable to store the User struct object.\r\n        User storage foo = userMapping[_email];\r\n        // Delete current instance of the user.\r\n        delete userMapping[_email];\r\n        // Add the user into the userMapping with the new email as the index.\r\n        userMapping[_newEmail] = foo;\r\n\r\n        username = foo.username;\r\n        name = foo.name;\r\n        ethereumAddress = foo.ethereumAddress;\r\n\r\n    }\r\n\r\n    function deleteUser(string memory _email, string memory _password)\r\n    public\r\n    {\r\n\r\n        // Utility function that deletes user from blockchain/database.\r\n\r\n        // Guard Functions\r\n        // 1. Check if the User exists in the store.\r\n        require(checkUserExistence(_email), \"User does not exist\");\r\n        // 2. Check if the _oldPassword is equal to the current Password of the user.\r\n        require(compareStrings(userMapping[_email].password, _password), \"Entered password does not match current password\");\r\n\r\n        // Before deleting the user. Delete his/her subscribers\r\n        // This should also reflect on the subscribers end too.\r\n\r\n        User storage foo = userMapping[_email];\r\n\r\n        for (uint i = 0;i < foo.subscribersCount;i++) {\r\n\r\n            for (uint j = 0;j < userMapping[foo.subscribers[i]].subscribedToCount;j++) {\r\n                string storage temp = userMapping[foo.subscribers[i]].subscribedTo[j];\r\n                if (compareStrings(temp, _email)) {\r\n                    delete userMapping[foo.subscribers[i]].subscribedTo[j];\r\n                }\r\n            }\r\n            userMapping[foo.subscribers[i]].subscribedToCount--;\r\n\r\n        }\r\n\r\n        delete userMapping[_email];\r\n\r\n    }\r\n\r\n    //------------------------------------- User functions start here -------------------------------------//\r\n\r\n    function addSubscriber(string memory _uploaderEmail, string memory _subscriberEmail)\r\n    public\r\n    {\r\n        // Function that adds subscriber to an User.\r\n\r\n        // Guard Functions\r\n        // 1. Check if uploader exists in the store.\r\n        require(checkUserExistence(_uploaderEmail), \"Uploader does not exist\");\r\n        // 2. Check if subscriber exists in the store.\r\n        require(checkUserExistence(_subscriberEmail), \"Subscriber does not exist\");\r\n\r\n         // \"memory\" keyword is used to hold a variable temporarily.\r\n        User storage uploader = userMapping[_uploaderEmail];\r\n        User storage subscriber = userMapping[_subscriberEmail];\r\n\r\n        // Add subscriber to uploader's subscriber list.\r\n        uploader.subscribersCount++;\r\n        uploader.subscribers.push(_subscriberEmail);\r\n\r\n        // Add uploader to the subscribedTo list for the subscriber.\r\n        subscriber.subscribedToCount++;\r\n        subscriber.subscribedTo.push(_uploaderEmail);\r\n    }\r\n\r\n    function removeSubscriber(string memory _uploaderEmail, string memory _subscriberEmail)\r\n    public\r\n    {\r\n        // Function that remove subscriber from user.\r\n\r\n        // Guard Functions\r\n        // 1. Check if uploader exists in the store.\r\n        require(checkUserExistence(_uploaderEmail), \"Uploader does not exist\");\r\n        // 2. Check if subscriber exists in the store.\r\n        require(checkUserExistence(_subscriberEmail), \"Subscriber does not exist\");\r\n\r\n        // \"memory\" keyword is used to hold a variable temporarily.\r\n        User storage uploader = userMapping[_uploaderEmail];\r\n        User storage subscriber = userMapping[_subscriberEmail];\r\n\r\n        // delete subscriber from uploader subscribers list.\r\n\r\n        for (uint i = 0;i < uploader.subscribersCount;i++) {\r\n            if (compareStrings(uploader.subscribers[i], _subscriberEmail)) {\r\n                delete uploader.subscribers[i];\r\n            }\r\n        }\r\n        // reduce subscriber count for uploader\r\n        uploader.subscribersCount--;\r\n\r\n        // delete uploader from subscriber's subscribedTo list\r\n        for (uint j = 0;j < subscriber.subscribedToCount;j++) {\r\n            if (compareStrings(_uploaderEmail, subscriber.subscribedTo[j])) {\r\n                delete subscriber.subscribedTo[j];\r\n            }\r\n        }\r\n\r\n        // reduce subscribedTo count for subscriber's subscribedTo list\r\n        subscriber.subscribersCount--;\r\n    }\r\n\r\n    //------------------------------------- User functions start here -------------------------------------//\r\n\r\n    function compareStrings(string memory one, string memory two)\r\n    internal\r\n    pure\r\n    returns (bool)\r\n    {\r\n\r\n        return keccak256(abi.encodePacked(one)) == keccak256(abi.encodePacked(two));\r\n\r\n    }\r\n\r\n    function strConcat(string memory _a, string memory _b, string memory _c, string memory _d, string memory _e)\r\n    internal\r\n    pure\r\n    returns (string memory)\r\n    {\r\n        bytes memory _ba = bytes(_a);\r\n        bytes memory _bb = bytes(_b);\r\n        bytes memory _bc = bytes(_c);\r\n        bytes memory _bd = bytes(_d);\r\n        bytes memory _be = bytes(_e);\r\n        string memory abcde = new string(_ba.length + _bb.length + _bc.length + _bd.length + _be.length);\r\n        bytes memory babcde = bytes(abcde);\r\n        uint k = 0;\r\n        uint i = 0;\r\n        for (i = 0; i < _ba.length; i++) babcde[k++] = _ba[i];\r\n        for (i = 0; i < _bb.length; i++) babcde[k++] = _bb[i];\r\n        for (i = 0; i < _bc.length; i++) babcde[k++] = _bc[i];\r\n        for (i = 0; i < _bd.length; i++) babcde[k++] = _bd[i];\r\n        for (i = 0; i < _be.length; i++) babcde[k++] = _be[i];\r\n        return string(babcde);\r\n    }\r\n\r\n    function strConcat(string memory _a, string memory _b, string memory _c, string memory _d)\r\n    internal\r\n    pure\r\n    returns (string memory)\r\n    {\r\n        return strConcat(_a, _b, _c, _d, \"\");\r\n    }\r\n\r\n    function strConcat(string memory _a, string memory _b, string memory _c)\r\n    internal\r\n    pure\r\n    returns (string memory)\r\n    {\r\n        return strConcat(_a, _b, _c, \"\", \"\");\r\n    }\r\n\r\n    function strConcat(string memory _a, string memory _b)\r\n    internal\r\n    pure\r\n    returns (string memory)\r\n    {\r\n        return strConcat(_a, _b, \"\", \"\", \"\");\r\n    }\r\n\r\n}\r\n",
  "sourcePath": "D:/Workspace/INKPlayer/Server/contracts/UserStore.sol",
  "compiler": {
    "name": "solc",
    "version": "0.5.0+commit.1d4f565a.Emscripten.clang"
  },
  "schemaVersion": "3.0.6",
  "updatedAt": "2019-05-29T09:28:20.940Z",
  "devdoc": {
    "methods": {}
  },
  "userdoc": {
    "methods": {}
  }
}