{
  "contractName": "VideoStore",
  "abi": [
    {
      "constant": true,
      "inputs": [],
      "name": "getVideoCount",
      "outputs": [
        {
          "name": "",
          "type": "uint256"
        }
      ],
      "payable": false,
      "stateMutability": "view",
      "type": "function",
      "signature": "0xa286c0b9"
    },
    {
      "constant": false,
      "inputs": [
        {
          "name": "_title",
          "type": "string"
        },
        {
          "name": "_description",
          "type": "string"
        },
        {
          "name": "_hash",
          "type": "string"
        },
        {
          "name": "_tags",
          "type": "string"
        },
        {
          "name": "_category",
          "type": "string"
        },
        {
          "name": "_userEmail",
          "type": "string"
        }
      ],
      "name": "addVideo",
      "outputs": [],
      "payable": false,
      "stateMutability": "nonpayable",
      "type": "function",
      "signature": "0x1764335b"
    },
    {
      "constant": false,
      "inputs": [],
      "name": "getVideoListCount",
      "outputs": [
        {
          "name": "",
          "type": "uint256"
        }
      ],
      "payable": false,
      "stateMutability": "nonpayable",
      "type": "function",
      "signature": "0xaeca12cc"
    },
    {
      "constant": false,
      "inputs": [
        {
          "name": "_id",
          "type": "uint256"
        }
      ],
      "name": "getVideo",
      "outputs": [
        {
          "components": [
            {
              "name": "title",
              "type": "string"
            },
            {
              "name": "description",
              "type": "string"
            },
            {
              "name": "videoTimestamp",
              "type": "uint256"
            },
            {
              "name": "hashes",
              "type": "string"
            },
            {
              "name": "hash",
              "type": "string"
            },
            {
              "name": "tags",
              "type": "string[]"
            },
            {
              "name": "category",
              "type": "string"
            },
            {
              "name": "userEmail",
              "type": "string"
            },
            {
              "name": "commentThreadId",
              "type": "uint256"
            }
          ],
          "name": "",
          "type": "tuple"
        }
      ],
      "payable": false,
      "stateMutability": "nonpayable",
      "type": "function",
      "signature": "0x2893eca2"
    },
    {
      "constant": true,
      "inputs": [
        {
          "name": "_tags",
          "type": "string"
        }
      ],
      "name": "searchVideo",
      "outputs": [
        {
          "name": "videoIds",
          "type": "uint256[]"
        }
      ],
      "payable": false,
      "stateMutability": "view",
      "type": "function",
      "signature": "0xe07d79a6"
    },
    {
      "constant": false,
      "inputs": [
        {
          "name": "_id",
          "type": "uint256"
        },
        {
          "name": "_title",
          "type": "string"
        },
        {
          "name": "_description",
          "type": "string"
        },
        {
          "name": "_hashes",
          "type": "string"
        },
        {
          "name": "_tags",
          "type": "string"
        },
        {
          "name": "_category",
          "type": "string"
        },
        {
          "name": "_userEmail",
          "type": "string"
        }
      ],
      "name": "updateVideo",
      "outputs": [],
      "payable": false,
      "stateMutability": "nonpayable",
      "type": "function",
      "signature": "0x19054a33"
    },
    {
      "constant": false,
      "inputs": [
        {
          "name": "_id",
          "type": "uint256"
        }
      ],
      "name": "deleteVideo",
      "outputs": [],
      "payable": false,
      "stateMutability": "nonpayable",
      "type": "function",
      "signature": "0xd4ab873e"
    }
  ],
  "bytecode": "0x6080604052600060025534801561001557600080fd5b5061116f806100256000396000f3fe608060405260043610610083576000357c0100000000000000000000000000000000000000000000000000000000900463ffffffff1680631764335b1461008857806319054a33146100b15780632893eca2146100da578063a286c0b914610117578063aeca12cc14610142578063d4ab873e1461016d578063e07d79a614610196575b600080fd5b34801561009457600080fd5b506100af60048036036100aa9190810190610afd565b6101d3565b005b3480156100bd57600080fd5b506100d860048036036100d39190810190610c3f565b610326565b005b3480156100e657600080fd5b5061010160048036036100fc9190810190610c16565b61032f565b60405161010e9190610fe3565b60405180910390f35b34801561012357600080fd5b5061012c61086e565b6040516101399190611005565b60405180910390f35b34801561014e57600080fd5b50610157610878565b6040516101649190611005565b60405180910390f35b34801561017957600080fd5b50610194600480360361018f9190810190610c16565b610882565b005b3480156101a257600080fd5b506101bd60048036036101b89190810190610abc565b610885565b6040516101ca9190610fa1565b60405180910390f35b6002600081548092919060010191905055506101ed61088c565b868160000181905250858160200181905250828160c00181905250818160e00181905250848160800181905250428160400181815250508060016000600254815260200190815260200160002060008201518160000190805190602001906102569291906108d9565b5060208201518160010190805190602001906102739291906108d9565b5060408201518160020155606082015181600301908051906020019061029a9291906108d9565b5060808201518160040190805190602001906102b79291906108d9565b5060a08201518160050190805190602001906102d4929190610959565b5060c08201518160060190805190602001906102f19291906108d9565b5060e082015181600701908051906020019061030e9291906108d9565b50610100820151816008015590505050505050505050565b50505050505050565b61033761088c565b600254821115151561037e576040517f08c379a000000000000000000000000000000000000000000000000000000000815260040161037590610fc3565b60405180910390fd5b600160008381526020019081526020016000206101206040519081016040529081600082018054600181600116156101000203166002900480601f0160208091040260200160405190810160405280929190818152602001828054600181600116156101000203166002900480156104375780601f1061040c57610100808354040283529160200191610437565b820191906000526020600020905b81548152906001019060200180831161041a57829003601f168201915b50505050508152602001600182018054600181600116156101000203166002900480601f0160208091040260200160405190810160405280929190818152602001828054600181600116156101000203166002900480156104d95780601f106104ae576101008083540402835291602001916104d9565b820191906000526020600020905b8154815290600101906020018083116104bc57829003601f168201915b5050505050815260200160028201548152602001600382018054600181600116156101000203166002900480601f0160208091040260200160405190810160405280929190818152602001828054600181600116156101000203166002900480156105855780601f1061055a57610100808354040283529160200191610585565b820191906000526020600020905b81548152906001019060200180831161056857829003601f168201915b50505050508152602001600482018054600181600116156101000203166002900480601f0160208091040260200160405190810160405280929190818152602001828054600181600116156101000203166002900480156106275780601f106105fc57610100808354040283529160200191610627565b820191906000526020600020905b81548152906001019060200180831161060a57829003601f168201915b5050505050815260200160058201805480602002602001604051908101604052809291908181526020016000905b82821015610711578382906000526020600020018054600181600116156101000203166002900480601f0160208091040260200160405190810160405280929190818152602001828054600181600116156101000203166002900480156106fd5780601f106106d2576101008083540402835291602001916106fd565b820191906000526020600020905b8154815290600101906020018083116106e057829003601f168201915b505050505081526020019060010190610655565b505050508152602001600682018054600181600116156101000203166002900480601f0160208091040260200160405190810160405280929190818152602001828054600181600116156101000203166002900480156107b25780601f10610787576101008083540402835291602001916107b2565b820191906000526020600020905b81548152906001019060200180831161079557829003601f168201915b50505050508152602001600782018054600181600116156101000203166002900480601f0160208091040260200160405190810160405280929190818152602001828054600181600116156101000203166002900480156108545780601f1061082957610100808354040283529160200191610854565b820191906000526020600020905b81548152906001019060200180831161083757829003601f168201915b505050505081526020016008820154815250509050919050565b6000600254905090565b6000600254905090565b50565b6060919050565b610120604051908101604052806060815260200160608152602001600081526020016060815260200160608152602001606081526020016060815260200160608152602001600081525090565b828054600181600116156101000203166002900490600052602060002090601f016020900481019282601f1061091a57805160ff1916838001178555610948565b82800160010185558215610948579182015b8281111561094757825182559160200191906001019061092c565b5b50905061095591906109b9565b5090565b8280548282559060005260206000209081019282156109a8579160200282015b828111156109a75782518290805190602001906109979291906108d9565b5091602001919060010190610979565b5b5090506109b591906109de565b5090565b6109db91905b808211156109d75760008160009055506001016109bf565b5090565b90565b610a0791905b80821115610a0357600081816109fa9190610a0a565b506001016109e4565b5090565b90565b50805460018160011615610100020316600290046000825580601f10610a305750610a4f565b601f016020900490600052602060002090810190610a4e91906109b9565b5b50565b600082601f8301121515610a6557600080fd5b8135610a78610a738261104d565b611020565b91508082526020830160208301858383011115610a9457600080fd5b610a9f8382846110e2565b50505092915050565b6000610ab482356110d8565b905092915050565b600060208284031215610ace57600080fd5b600082013567ffffffffffffffff811115610ae857600080fd5b610af484828501610a52565b91505092915050565b60008060008060008060c08789031215610b1657600080fd5b600087013567ffffffffffffffff811115610b3057600080fd5b610b3c89828a01610a52565b965050602087013567ffffffffffffffff811115610b5957600080fd5b610b6589828a01610a52565b955050604087013567ffffffffffffffff811115610b8257600080fd5b610b8e89828a01610a52565b945050606087013567ffffffffffffffff811115610bab57600080fd5b610bb789828a01610a52565b935050608087013567ffffffffffffffff811115610bd457600080fd5b610be089828a01610a52565b92505060a087013567ffffffffffffffff811115610bfd57600080fd5b610c0989828a01610a52565b9150509295509295509295565b600060208284031215610c2857600080fd5b6000610c3684828501610aa8565b91505092915050565b600080600080600080600060e0888a031215610c5a57600080fd5b6000610c688a828b01610aa8565b975050602088013567ffffffffffffffff811115610c8557600080fd5b610c918a828b01610a52565b965050604088013567ffffffffffffffff811115610cae57600080fd5b610cba8a828b01610a52565b955050606088013567ffffffffffffffff811115610cd757600080fd5b610ce38a828b01610a52565b945050608088013567ffffffffffffffff811115610d0057600080fd5b610d0c8a828b01610a52565b93505060a088013567ffffffffffffffff811115610d2957600080fd5b610d358a828b01610a52565b92505060c088013567ffffffffffffffff811115610d5257600080fd5b610d5e8a828b01610a52565b91505092959891949750929550565b6000610d7882611093565b80845260208401935083602082028501610d9185611079565b60005b84811015610dca578383038852610dac838351610e36565b9250610db7826110b4565b9150602088019750600181019050610d94565b508196508694505050505092915050565b6000610de68261109e565b808452602084019350610df883611086565b60005b82811015610e2a57610e0e868351610f92565b610e17826110c1565b9150602086019550600181019050610dfb565b50849250505092915050565b6000610e41826110a9565b808452610e558160208601602086016110f1565b610e5e81611124565b602085010191505092915050565b6000601482527f566964656f20646f6573206e6f742065786973740000000000000000000000006020830152604082019050919050565b6000610120830160008301518482036000860152610ec18282610e36565b91505060208301518482036020860152610edb8282610e36565b9150506040830151610ef06040860182610f92565b5060608301518482036060860152610f088282610e36565b91505060808301518482036080860152610f228282610e36565b91505060a083015184820360a0860152610f3c8282610d6d565b91505060c083015184820360c0860152610f568282610e36565b91505060e083015184820360e0860152610f708282610e36565b915050610100830151610f87610100860182610f92565b508091505092915050565b610f9b816110ce565b82525050565b60006020820190508181036000830152610fbb8184610ddb565b905092915050565b60006020820190508181036000830152610fdc81610e6c565b9050919050565b60006020820190508181036000830152610ffd8184610ea3565b905092915050565b600060208201905061101a6000830184610f92565b92915050565b6000604051905081810181811067ffffffffffffffff8211171561104357600080fd5b8060405250919050565b600067ffffffffffffffff82111561106457600080fd5b601f19601f8301169050602081019050919050565b6000602082019050919050565b6000602082019050919050565b600081519050919050565b600081519050919050565b600081519050919050565b6000602082019050919050565b6000602082019050919050565b6000819050919050565b6000819050919050565b82818337600083830152505050565b60005b8381101561110f5780820151818401526020810190506110f4565b8381111561111e576000848401525b50505050565b6000601f19601f830116905091905056fea265627a7a72305820614fb285fe164e8065caf46bcfb1dbcbdf0fc1b248135714c69565e5156d87676c6578706572696d656e74616cf50037",
  "source": "// solium-disable linebreak-style\npragma solidity ^0.5.0;\npragma experimental ABIEncoderV2;\ncontract VideoStore {\n\n    struct Comment {\n        string content;\n        string userEmail;\n        uint commentTimestamp;\n        uint likes;\n        Comment[] replies;\n    }\n\n    struct Video {\n        string title;\n        string description;\n        uint videoTimestamp;\n        string hashes;\n        string hash;\n        string[] tags;\n        string category;\n        string userEmail;\n        uint commentThreadId;\n    }\n\n    mapping(string=>uint[]) tagMapping;\n    mapping(uint => Video) videoList;\n\n    uint videoListCount = 0;\n\n    Comment[] commentThreads; // Tags are used to search the database.\n\n    function getVideoCount() \n    public \n    view \n    returns (uint) {\n        return videoListCount;\n    }\n\n    function addVideo(\n        string memory _title,\n        string memory _description,\n        string memory _hash,\n        string memory _tags,\n        string memory _category,\n        string memory _userEmail\n        )\n    public\n    {\n        // Add insertion functionality.\n        // string hashes is going to be a list of string saved as one.\n        // This is because solidity doesnot have a way to serialize and deserialize a string array.\n        // using ; as a delimiter.\n        // similar logic is going to be used for the tags array or for any arrays for that matter.\n\n        videoListCount++;\n\n        Video memory foo;\n        foo.title = _title;\n        foo.description = _description;\n        foo.category = _category;\n        foo.userEmail = _userEmail;\n        foo.hash = _hash;\n        foo.videoTimestamp = now;\n\n        videoList[videoListCount] = foo;\n\n        // extract all tags in the _tags string.\n        // create tag entry, and push the video id to tagMapping\n\n        // string[] tags = generateTags(_tags);\n\n    }\n\n    function getVideoListCount()\n    public\n    returns (uint) {\n      return videoListCount;\n    }\n\n    function getVideo(uint _id)\n    public\n    returns (Video memory) {\n      require(_id <= videoListCount, \"Video does not exist\");\n      return videoList[_id];\n    }\n\n    function addVideoIdToTag(string memory _tag, uint videoId)\n    internal\n    {\n        tagMapping[_tag].push(videoId);\n    }\n\n    function searchVideo(string memory _tags)\n    public\n    view\n    returns (uint[] memory videoIds)\n    {\n\n        // Implement search algorithm here.\n        // Split _tags into string array\n        // Figure out Ranking Algorithm\n\n    }\n\n\n\n    function updateVideo(\n        uint _id,\n        string memory _title,\n        string memory _description,\n        string memory _hashes,\n        string memory _tags,\n        string memory _category,\n        string memory _userEmail\n        )\n    public\n    {\n\n    }\n\n    function deleteVideo(uint _id)\n    public\n    {\n\n    }\n\n    //________________________________Comment Functions______________________________________//\n\n    // struct Comment {\n    //     string content;\n    //     string userEmail;\n    //     uint commentTimestamp;\n    //     uint likes;\n    //     Comment[] replies;\n    // }\n\n\n  //________________________________Helper Functions______________________________________//\n\n//   function generateTags(string memory _tags)\n//   internal\n//   returns (string[] memory tags)\n//   {\n\n//     // separate tags into string array.\n//     // separate using delimiter ;\n\n//   }\n\n}\n",
  "sourcePath": "D:/Workspace/INK-Player-Server/contracts/VideoStore.sol",
  "compiler": {
    "name": "solc",
    "version": "0.5.0+commit.1d4f565a.Emscripten.clang"
  },
  "schemaVersion": "3.0.6",
  "updatedAt": "2019-04-21T11:45:39.895Z",
  "devdoc": {
    "methods": {}
  },
  "userdoc": {
    "methods": {}
  }
}