{
  "contractName": "VideoStore",
  "abi": [
    {
      "constant": true,
      "inputs": [],
      "name": "getVideoCount",
      "outputs": [
        {
          "name": "",
          "type": "uint256"
        }
      ],
      "payable": false,
      "stateMutability": "view",
      "type": "function",
      "signature": "0xa286c0b9"
    },
    {
      "constant": false,
      "inputs": [
        {
          "name": "_title",
          "type": "string"
        },
        {
          "name": "_description",
          "type": "string"
        },
        {
          "name": "_hash",
          "type": "string"
        },
        {
          "name": "_tags",
          "type": "string"
        },
        {
          "name": "_category",
          "type": "string"
        },
        {
          "name": "_userEmail",
          "type": "string"
        }
      ],
      "name": "addVideo",
      "outputs": [],
      "payable": false,
      "stateMutability": "nonpayable",
      "type": "function",
      "signature": "0x1764335b"
    },
    {
      "constant": true,
      "inputs": [
        {
          "name": "_email",
          "type": "string"
        }
      ],
      "name": "getVideosByUser",
      "outputs": [
        {
          "name": "ids",
          "type": "uint256[]"
        }
      ],
      "payable": false,
      "stateMutability": "view",
      "type": "function",
      "signature": "0xc886d40e"
    },
    {
      "constant": false,
      "inputs": [
        {
          "name": "_id",
          "type": "uint256"
        }
      ],
      "name": "getVideoListCount",
      "outputs": [
        {
          "components": [
            {
              "name": "title",
              "type": "string"
            },
            {
              "name": "description",
              "type": "string"
            },
            {
              "name": "videoTimestamp",
              "type": "uint256"
            },
            {
              "name": "hashes",
              "type": "string"
            },
            {
              "name": "hash",
              "type": "string"
            },
            {
              "name": "tags",
              "type": "string[]"
            },
            {
              "name": "category",
              "type": "string"
            },
            {
              "name": "userEmail",
              "type": "string"
            },
            {
              "name": "commentThreadId",
              "type": "uint256"
            }
          ],
          "name": "",
          "type": "uint256"
        }
      ],
      "payable": false,
      "stateMutability": "nonpayable",
      "type": "function",
      "signature": "0xe40aa684"
    },
    {
      "constant": false,
      "inputs": [
        {
          "name": "_id",
          "type": "uint256"
        }
      ],
      "name": "getVideo",
      "outputs": [
        {
          "name": "",
          "type": "tuple",
          "components": [
            {
              "name": "title",
              "type": "string"
            },
            {
              "name": "description",
              "type": "string"
            },
            {
              "name": "videoTimestamp",
              "type": "uint256"
            },
            {
              "name": "hashes",
              "type": "string"
            },
            {
              "name": "hash",
              "type": "string"
            },
            {
              "name": "tags",
              "type": "string[]"
            },
            {
              "name": "category",
              "type": "string"
            },
            {
              "name": "userEmail",
              "type": "string"
            },
            {
              "name": "commentThreadId",
              "type": "uint256"
            }
          ]
        }
      ],
      "payable": false,
      "stateMutability": "nonpayable",
      "type": "function",
      "signature": "0x2893eca2"
    },
    {
      "constant": true,
      "inputs": [
        {
          "name": "_tags",
          "type": "string"
        },
        {
          "name": "_title",
          "type": "string"
        },
        {
          "name": "_description",
          "type": "string"
        },
        {
          "name": "_hashes",
          "type": "string"
        },
        {
          "name": "_tags",
          "type": "string"
        },
        {
          "name": "_category",
          "type": "string"
        },
        {
          "name": "_userEmail",
          "type": "string"
        }
      ],
      "name": "searchVideo",
      "outputs": [
        {
          "name": "videoIds",
          "type": "uint256[]"
        }
      ],
      "payable": false,
      "stateMutability": "view",
      "type": "function",
      "signature": "0xebd059b2"
    },
    {
      "constant": false,
      "inputs": [
        {
          "name": "_id",
          "type": "uint256"
        },
        {
          "name": "_title",
          "type": "string"
        },
        {
          "name": "_description",
          "type": "string"
        },
        {
          "name": "_hashes",
          "type": "string"
        },
        {
          "name": "_tags",
          "type": "string"
        },
        {
          "name": "_category",
          "type": "string"
        },
        {
          "name": "_userEmail",
          "type": "string"
        }
      ],
      "name": "updateVideo",
      "outputs": [],
      "payable": false,
      "stateMutability": "nonpayable",
      "type": "function",
      "signature": "0x19054a33"
    },
    {
      "constant": false,
      "inputs": [
        {
          "name": "_id",
          "type": "uint256"
        }
      ],
      "name": "deleteVideo",
      "outputs": [],
      "payable": false,
      "stateMutability": "nonpayable",
      "type": "function",
      "signature": "0xd4ab873e"
    }
  ],
  "bytecode": "0x6080604052600060025534801561001557600080fd5b50611802806100256000396000f3fe60806040526004361061008e576000357c0100000000000000000000000000000000000000000000000000000000900463ffffffff1680631764335b1461009357806319054a33146100bc5780632893eca2146100e5578063a286c0b914610122578063aeca12cc1461014d578063c886d40e14610178578063d4ab873e146101b5578063e07d79a6146101de575b600080fd5b34801561009f57600080fd5b506100ba60048036036100b59190810190611190565b61021b565b005b3480156100c857600080fd5b506100e360048036036100de91908101906112d2565b61036e565b005b3480156100f157600080fd5b5061010c600480360361010791908101906112a9565b610377565b6040516101199190611676565b60405180910390f35b34801561012e57600080fd5b506101376108b6565b6040516101449190611698565b60405180910390f35b34801561015957600080fd5b506101626108c0565b60405161016f9190611698565b60405180910390f35b34801561018457600080fd5b5061019f600480360361019a919081019061114f565b6108ca565b6040516101ac9190611634565b60405180910390f35b3480156101c157600080fd5b506101dc60048036036101d791908101906112a9565b610e22565b005b3480156101ea57600080fd5b506102056004803603610200919081019061114f565b610e25565b6040516102129190611634565b60405180910390f35b600260008154809291906001019190505550610235610f1f565b868160000181905250858160200181905250828160c00181905250818160e001819052508481608001819052504281604001818152505080600160006002548152602001908152602001600020600082015181600001908051906020019061029e929190610f6c565b5060208201518160010190805190602001906102bb929190610f6c565b506040820151816002015560608201518160030190805190602001906102e2929190610f6c565b5060808201518160040190805190602001906102ff929190610f6c565b5060a082015181600501908051906020019061031c929190610fec565b5060c0820151816006019080519060200190610339929190610f6c565b5060e0820151816007019080519060200190610356929190610f6c565b50610100820151816008015590505050505050505050565b50505050505050565b61037f610f1f565b60025482111515156103c6576040517f08c379a00000000000000000000000000000000000000000000000000000000081526004016103bd90611656565b60405180910390fd5b600160008381526020019081526020016000206101206040519081016040529081600082018054600181600116156101000203166002900480601f01602080910402602001604051908101604052809291908181526020018280546001816001161561010002031660029004801561047f5780601f106104545761010080835404028352916020019161047f565b820191906000526020600020905b81548152906001019060200180831161046257829003601f168201915b50505050508152602001600182018054600181600116156101000203166002900480601f0160208091040260200160405190810160405280929190818152602001828054600181600116156101000203166002900480156105215780601f106104f657610100808354040283529160200191610521565b820191906000526020600020905b81548152906001019060200180831161050457829003601f168201915b5050505050815260200160028201548152602001600382018054600181600116156101000203166002900480601f0160208091040260200160405190810160405280929190818152602001828054600181600116156101000203166002900480156105cd5780601f106105a2576101008083540402835291602001916105cd565b820191906000526020600020905b8154815290600101906020018083116105b057829003601f168201915b50505050508152602001600482018054600181600116156101000203166002900480601f01602080910402602001604051908101604052809291908181526020018280546001816001161561010002031660029004801561066f5780601f106106445761010080835404028352916020019161066f565b820191906000526020600020905b81548152906001019060200180831161065257829003601f168201915b5050505050815260200160058201805480602002602001604051908101604052809291908181526020016000905b82821015610759578382906000526020600020018054600181600116156101000203166002900480601f0160208091040260200160405190810160405280929190818152602001828054600181600116156101000203166002900480156107455780601f1061071a57610100808354040283529160200191610745565b820191906000526020600020905b81548152906001019060200180831161072857829003601f168201915b50505050508152602001906001019061069d565b505050508152602001600682018054600181600116156101000203166002900480601f0160208091040260200160405190810160405280929190818152602001828054600181600116156101000203166002900480156107fa5780601f106107cf576101008083540402835291602001916107fa565b820191906000526020600020905b8154815290600101906020018083116107dd57829003601f168201915b50505050508152602001600782018054600181600116156101000203166002900480601f01602080910402602001604051908101604052809291908181526020018280546001816001161561010002031660029004801561089c5780601f106108715761010080835404028352916020019161089c565b820191906000526020600020905b81548152906001019060200180831161087f57829003601f168201915b505050505081526020016008820154815250509050919050565b6000600254905090565b6000600254905090565b6060600080905060008090505b600254811015610e1b576108e9610f1f565b600160008381526020019081526020016000206101206040519081016040529081600082018054600181600116156101000203166002900480601f0160208091040260200160405190810160405280929190818152602001828054600181600116156101000203166002900480156109a25780601f10610977576101008083540402835291602001916109a2565b820191906000526020600020905b81548152906001019060200180831161098557829003601f168201915b50505050508152602001600182018054600181600116156101000203166002900480601f016020809104026020016040519081016040528092919081815260200182805460018160011615610100020316600290048015610a445780601f10610a1957610100808354040283529160200191610a44565b820191906000526020600020905b815481529060010190602001808311610a2757829003601f168201915b5050505050815260200160028201548152602001600382018054600181600116156101000203166002900480601f016020809104026020016040519081016040528092919081815260200182805460018160011615610100020316600290048015610af05780601f10610ac557610100808354040283529160200191610af0565b820191906000526020600020905b815481529060010190602001808311610ad357829003601f168201915b50505050508152602001600482018054600181600116156101000203166002900480601f016020809104026020016040519081016040528092919081815260200182805460018160011615610100020316600290048015610b925780601f10610b6757610100808354040283529160200191610b92565b820191906000526020600020905b815481529060010190602001808311610b7557829003601f168201915b5050505050815260200160058201805480602002602001604051908101604052809291908181526020016000905b82821015610c7c578382906000526020600020018054600181600116156101000203166002900480601f016020809104026020016040519081016040528092919081815260200182805460018160011615610100020316600290048015610c685780601f10610c3d57610100808354040283529160200191610c68565b820191906000526020600020905b815481529060010190602001808311610c4b57829003601f168201915b505050505081526020019060010190610bc0565b505050508152602001600682018054600181600116156101000203166002900480601f016020809104026020016040519081016040528092919081815260200182805460018160011615610100020316600290048015610d1d5780601f10610cf257610100808354040283529160200191610d1d565b820191906000526020600020905b815481529060010190602001808311610d0057829003601f168201915b50505050508152602001600782018054600181600116156101000203166002900480601f016020809104026020016040519081016040528092919081815260200182805460018160011615610100020316600290048015610dbf5780601f10610d9457610100808354040283529160200191610dbf565b820191906000526020600020905b815481529060010190602001808311610da257829003601f168201915b505050505081526020016008820154815250509050610de28160e0015186610e2c565b15610e0d57818484815181101515610df657fe5b906020019060200201818152505082806001019350505b5080806001019150506108d7565b5050919050565b50565b6060919050565b6000816040516020018082805190602001908083835b602083101515610e675780518252602082019150602081019050602083039250610e42565b6001836020036101000a03801982511681845116808217855250505050505090500191505060405160208183030381529060405280519060200120836040516020018082805190602001908083835b602083101515610edb5780518252602082019150602081019050602083039250610eb6565b6001836020036101000a0380198251168184511680821785525050505050509050019150506040516020818303038152906040528051906020012014905092915050565b610120604051908101604052806060815260200160608152602001600081526020016060815260200160608152602001606081526020016060815260200160608152602001600081525090565b828054600181600116156101000203166002900490600052602060002090601f016020900481019282601f10610fad57805160ff1916838001178555610fdb565b82800160010185558215610fdb579182015b82811115610fda578251825591602001919060010190610fbf565b5b509050610fe8919061104c565b5090565b82805482825590600052602060002090810192821561103b579160200282015b8281111561103a57825182908051906020019061102a929190610f6c565b509160200191906001019061100c565b5b5090506110489190611071565b5090565b61106e91905b8082111561106a576000816000905550600101611052565b5090565b90565b61109a91905b80821115611096576000818161108d919061109d565b50600101611077565b5090565b90565b50805460018160011615610100020316600290046000825580601f106110c357506110e2565b601f0160209004906000526020600020908101906110e1919061104c565b5b50565b600082601f83011215156110f857600080fd5b813561110b611106826116e0565b6116b3565b9150808252602083016020830185838301111561112757600080fd5b611132838284611775565b50505092915050565b6000611147823561176b565b905092915050565b60006020828403121561116157600080fd5b600082013567ffffffffffffffff81111561117b57600080fd5b611187848285016110e5565b91505092915050565b60008060008060008060c087890312156111a957600080fd5b600087013567ffffffffffffffff8111156111c357600080fd5b6111cf89828a016110e5565b965050602087013567ffffffffffffffff8111156111ec57600080fd5b6111f889828a016110e5565b955050604087013567ffffffffffffffff81111561121557600080fd5b61122189828a016110e5565b945050606087013567ffffffffffffffff81111561123e57600080fd5b61124a89828a016110e5565b935050608087013567ffffffffffffffff81111561126757600080fd5b61127389828a016110e5565b92505060a087013567ffffffffffffffff81111561129057600080fd5b61129c89828a016110e5565b9150509295509295509295565b6000602082840312156112bb57600080fd5b60006112c98482850161113b565b91505092915050565b600080600080600080600060e0888a0312156112ed57600080fd5b60006112fb8a828b0161113b565b975050602088013567ffffffffffffffff81111561131857600080fd5b6113248a828b016110e5565b965050604088013567ffffffffffffffff81111561134157600080fd5b61134d8a828b016110e5565b955050606088013567ffffffffffffffff81111561136a57600080fd5b6113768a828b016110e5565b945050608088013567ffffffffffffffff81111561139357600080fd5b61139f8a828b016110e5565b93505060a088013567ffffffffffffffff8111156113bc57600080fd5b6113c88a828b016110e5565b92505060c088013567ffffffffffffffff8111156113e557600080fd5b6113f18a828b016110e5565b91505092959891949750929550565b600061140b82611726565b808452602084019350836020820285016114248561170c565b60005b8481101561145d57838303885261143f8383516114c9565b925061144a82611747565b9150602088019750600181019050611427565b508196508694505050505092915050565b600061147982611731565b80845260208401935061148b83611719565b60005b828110156114bd576114a1868351611625565b6114aa82611754565b915060208601955060018101905061148e565b50849250505092915050565b60006114d48261173c565b8084526114e8816020860160208601611784565b6114f1816117b7565b602085010191505092915050565b6000601482527f566964656f20646f6573206e6f742065786973740000000000000000000000006020830152604082019050919050565b600061012083016000830151848203600086015261155482826114c9565b9150506020830151848203602086015261156e82826114c9565b91505060408301516115836040860182611625565b506060830151848203606086015261159b82826114c9565b915050608083015184820360808601526115b582826114c9565b91505060a083015184820360a08601526115cf8282611400565b91505060c083015184820360c08601526115e982826114c9565b91505060e083015184820360e086015261160382826114c9565b91505061010083015161161a610100860182611625565b508091505092915050565b61162e81611761565b82525050565b6000602082019050818103600083015261164e818461146e565b905092915050565b6000602082019050818103600083015261166f816114ff565b9050919050565b600060208201905081810360008301526116908184611536565b905092915050565b60006020820190506116ad6000830184611625565b92915050565b6000604051905081810181811067ffffffffffffffff821117156116d657600080fd5b8060405250919050565b600067ffffffffffffffff8211156116f757600080fd5b601f19601f8301169050602081019050919050565b6000602082019050919050565b6000602082019050919050565b600081519050919050565b600081519050919050565b600081519050919050565b6000602082019050919050565b6000602082019050919050565b6000819050919050565b6000819050919050565b82818337600083830152505050565b60005b838110156117a2578082015181840152602081019050611787565b838111156117b1576000848401525b50505050565b6000601f19601f830116905091905056fea265627a7a72305820576a9ff53c00e0e0abb0630b7e90794ce38763cb75e69f210f7f13f91914b2c46c6578706572696d656e74616cf50037",
  "source": "// solium-disable linebreak-style\r\npragma solidity ^0.5.0;\r\npragma experimental ABIEncoderV2;\r\ncontract VideoStore {\r\n\r\n    struct Comment {\r\n        string content;\r\n        string userEmail;\r\n        uint commentTimestamp;\r\n        uint likes;\r\n        Comment[] replies;\r\n    }\r\n\r\n    struct Video {\r\n        string title;\r\n        string description;\r\n        uint videoTimestamp;\r\n        string hashes;\r\n        string hash;\r\n        string[] tags;\r\n        string category;\r\n        string userEmail;\r\n        uint commentThreadId;\r\n    }\r\n\r\n    mapping(string=>uint[]) tagMapping;\r\n    mapping(uint => Video) videoList;\r\n\r\n    uint videoListCount = 0;\r\n\r\n    Comment[] commentThreads; // Tags are used to search the database.\r\n\r\n    function getVideoCount() \r\n    public \r\n    view \r\n    returns (uint) {\r\n        return videoListCount;\r\n    }\r\n\r\n    function addVideo(\r\n        string memory _title,\r\n        string memory _description,\r\n        string memory _hash,\r\n        string memory _tags,\r\n        string memory _category,\r\n        string memory _userEmail\r\n        )\r\n    public\r\n    {\r\n        // Add insertion functionality.\r\n        // string hashes is going to be a list of string saved as one.\r\n        // This is because solidity doesnot have a way to serialize and deserialize a string array.\r\n        // using ; as a delimiter.\r\n        // similar logic is going to be used for the tags array or for any arrays for that matter.\r\n\r\n        videoListCount++;\r\n\r\n        Video memory foo;\r\n        foo.title = _title;\r\n        foo.description = _description;\r\n        foo.category = _category;\r\n        foo.userEmail = _userEmail;\r\n        foo.hash = _hash;\r\n        foo.videoTimestamp = now;\r\n\r\n        videoList[videoListCount] = foo;\r\n\r\n        // extract all tags in the _tags string.\r\n        // create tag entry, and push the video id to tagMapping\r\n\r\n        // string[] tags = generateTags(_tags);\r\n\r\n    }\r\n    \r\n    function getVideosByUser(string memory _email) \r\n    public \r\n    view\r\n    returns (uint[] memory ids) {\r\n        uint length = 0;\r\n        for(uint i = 0;i < videoListCount;i++) {\r\n            Video memory foo = videoList[i];\r\n            if (compareStrings(foo.userEmail, _email)) {\r\n               ids[length] = i;\r\n               length++;\r\n            }\r\n        }\r\n    }\r\n\r\n    function getVideoListCount()\r\n    public\r\n    returns (uint) {\r\n      return videoListCount;\r\n    }\r\n\r\n    function getVideo(uint _id)\r\n    public\r\n    returns (Video memory) {\r\n      require(_id <= videoListCount, \"Video does not exist\");\r\n      return videoList[_id];\r\n    }\r\n\r\n    function addVideoIdToTag(string memory _tag, uint videoId)\r\n    internal\r\n    {\r\n        tagMapping[_tag].push(videoId);\r\n    }\r\n\r\n    function searchVideo(string memory _tags)\r\n    public\r\n    view\r\n    returns (uint[] memory videoIds)\r\n    {\r\n\r\n        // Implement search algorithm here.\r\n        // Split _tags into string array\r\n        // Figure out Ranking Algorithm\r\n\r\n    }\r\n\r\n\r\n\r\n    function updateVideo(\r\n        uint _id,\r\n        string memory _title,\r\n        string memory _description,\r\n        string memory _hashes,\r\n        string memory _tags,\r\n        string memory _category,\r\n        string memory _userEmail\r\n        )\r\n    public\r\n    {\r\n\r\n    }\r\n\r\n    function deleteVideo(uint _id)\r\n    public\r\n    {\r\n\r\n    }\r\n\r\n    //________________________________Comment Functions______________________________________//\r\n\r\n    // struct Comment {\r\n    //     string content;\r\n    //     string userEmail;\r\n    //     uint commentTimestamp;\r\n    //     uint likes;\r\n    //     Comment[] replies;\r\n    // }\r\n\r\n\r\n  //________________________________Helper Functions______________________________________//\r\n\r\n//   function generateTags(string memory _tags)\r\n//   internal\r\n//   returns (string[] memory tags)\r\n//   {\r\n\r\n//     // separate tags into string array.\r\n//     // separate using delimiter ;\r\n\r\n//   }\r\n    function compareStrings(string memory one, string memory two)\r\n    internal\r\n    pure\r\n    returns (bool)\r\n    {\r\n\r\n        return keccak256(abi.encodePacked(one)) == keccak256(abi.encodePacked(two));\r\n\r\n    }\r\n\r\n}\r\n",
  "sourcePath": "D:/Workspace/INKPlayer/Server/contracts/VideoStore.sol",
  "compiler": {
    "name": "solc",
    "version": "0.5.0+commit.1d4f565a.Emscripten.clang"
  },
  "schemaVersion": "3.0.6",
  "updatedAt": "2019-05-01T03:52:42.055Z",
  "devdoc": {
    "methods": {}
  },
  "userdoc": {
    "methods": {}
  }
}